:100000000C94C9000C94F1000C94F1000C94F100D4
:100010000C94F1000C94F1000C94F1000C943C034E
:100020000C94F1000C94F1000C94F1000C94F1008C
:100030000C94F1000C94F1000C94F1000C94F1007C
:100040000C94AC0B0C94FD060C940A030C94E40283
:100050000C94F1000C94F1000C94F1000C94F1005C
:100060000C94DE040C94F100DA0FDD0FE10FE40FC5
:10007000E60FE80FEC0FF00FF20FF40FF80FFC0F84
:10008000A9068206AC06850688068B068E069106B2
:10009000940698069C06A006A4062E002076004230
:1000A0006175643A00537061726B46756E204F70D3
:1000B000656E4C43440057696474683A004C696E3D
:1000C00065733A004E0046460053706C61736820B9
:1000D0004F0042617564206E6F773A004E004646CD
:1000E0000049676E6F7265205258204F002E0046FF
:1000F00069726D776172652076004D657373616713
:100100006573204F4E0053706C617368204F4E0032
:1001100053706C617368204F46460025003A2000FA
:10012000426C756500477265656E004261636B6C79
:10013000696768740000000000240027002A00009E
:100140000000002300260029000000000800020132
:10015000000003040700000000000000000102048A
:100160000810204080010204081020010204081039
:100170002000000000250028002B000404040404D3
:100180000404040202020202020303030303030045
:100190005F1311241FBECFEFD8E0DEBFCDBF11E04B
:1001A000A0E0B1E0E0EEF8E202C005900D92A238C6
:1001B000B107D9F724E0A2E8B1E001C01D92A3384D
:1001C000B207E1F710E0C9ECD0E004C02197FE01CE
:1001D0000E946314C83CD107C9F70E94F60B0C9427
:1001E0006E140C940000CF92DF92EF92FF920F9367
:1001F0001F93CF93DF936C017A018B01C0E0D0E0B5
:10020000CE15DF0581F0D8016D918D01D601ED91FC
:10021000FC910190F081E02DC6010995892B11F028
:100220002196EECF7E01C701DF91CF911F910F91F3
:10023000FF90EF90DF90CF900895FC01538D448D97
:10024000252F30E0842F90E0821B930B541710F081
:10025000CF96089501970895FC01918D828D98178E
:1002600061F0828DDF01A80FB11D5D968C91928D9A
:100270009F5F9F73928F90E008958FEF9FEF089597
:10028000FC01918D828D981731F0828DE80FF11D60
:10029000858D90E008958FEF9FEF0895FC01918D7B
:1002A000228D892F90E0805C9F4F821B91098F7374
:1002B0009927089584EB93E00E944E0121E0892B59
:1002C00009F420E0822F0895FC01848DDF01A80F3E
:1002D000B11DA35ABF4F2C91848D90E001968F736E
:1002E0009927848FA689B7892C93A089B1898C918D
:1002F000837080648C93938D848D981306C00288DC
:10030000F389E02D80818F7D80830895EF92FF92A5
:100310000F931F93CF93DF93EC0181E0888F9B8D28
:100320008C8D981305C0E889F989808185FD26C0E8
:10033000F62E0B8D10E00F5F1F4F0F731127E02E6D
:100340008C8DE8120CC00FB607FCFACFE889F9894A
:10035000808185FFF5CFCE010E946401F1CF8B8DA6
:10036000FE01E80FF11DE35AFF4FF0829FB7F894AA
:100370000B8FEA89FB89808180620AC09FB7F8945D
:10038000EE89FF896083E889F989808183708064C0
:1003900080839FBF81E090E0DF91CF911F910F910B
:1003A000FF90EF900895CF93DF93EC01888D882321
:1003B000C9F0EA89FB89808185FD05C0A889B989D2
:1003C0008C9186FD0FC00FB607FCF5CF808185FFAD
:1003D000F2CFA889B9898C9185FFEDCFCE010E941B
:1003E0006401E7CFDF91CF91089584EB93E00E9401
:1003F0004E01892BC1F084EB93E00E942C012091E7
:10040000560230E02F5F3F4F2F77332790915702EE
:10041000921759F3E0915602F0E0EA52FE4F8083C2
:1004200020935602E2CF08950E945A0181110C9444
:10043000F501089585ED8093BC008091BC0084FD9A
:10044000FCCF1092D10208954091AB02262F30E0EC
:10045000240F311D21323105DCF42091D1022430EA
:10046000C9F4FC0180E090E0861758F43091AB02AB
:100470002191DC01A757BD4FA30FB11D2C9301960D
:10048000F3CF8091AB02680F6093AB0280E00895D8
:1004900081E0089582E008950895CF93DF93AC0141
:1004A000E0918502F09186023097F1F090918402FC
:1004B000809183029817C0F090E0292F30E0261732
:1004C000370754F4D901AD59BD4FEA01C20FD31F0C
:1004D00028812C939F5FF1CF109284026093830256
:1004E000CB01DF91CF910994DF91CF9108950895C9
:1004F000E091840280918302E81730F4F0E0ED5936
:10050000FD4F808190E008958FEF9FEF08959091C7
:10051000840280918302981750F4E92FF0E0ED599E
:10052000FD4F208130E09F5F9093840202C02FEF47
:100530003FEFC90108958091830290E020918402E9
:10054000821B91090895CF93DF93CB01EA01642FB9
:100550000E942402CE01DF91CF910895CF93DF93C3
:100560001F92CDB7DEB7698361E0CE0101960E948C
:10057000240281E090E00F90DF91CF910895909157
:100580008302809184029817C1F081E594E00E9473
:1005900087022091560230E02F5F3F4F2F7733279D
:1005A00090915702921759F3E0915602F0E0EA5207
:1005B000FE4F808320935602E2CF0895089580E095
:1005C00090E008950E9469141F920F920FB60F9247
:1005D00011242F933F934F935F936F937F938F9348
:1005E0009F93AF93BF93EF93FF9384EB93E00E94AD
:1005F0006401FF91EF91BF91AF919F918F917F9196
:100600006F915F914F913F912F910F900FBE0F907F
:100610001F9018951F920F920FB60F9211242F93CF
:100620008F939F93EF93FF93E091C403F091C503E1
:100630008081E091CA03F091CB0382FD12C09081CA
:100640008091CD038F5F8F732091CE03821751F07D
:10065000E091CD03F0E0EC54FC4F958F8093CD03F7
:1006600001C08081FF91EF919F918F912F910F9009
:100670000FBE0F901F9018951F920F920FB60F92FA
:1006800011242F933F934F936F937F938F939F9357
:10069000AF93BF93EF93FF93809100018F5F80939F
:1006A0000001882319F0E0E0F3E03CC0E0E0F3E073
:1006B00047812581411103C080858823E1F030E026
:1006C000868190E0B901681B790B1616170644F471
:1006D000442389F0840F911D8217930764F40AC0A4
:1006E000672B49F04085442331F0841B910928177A
:1006F00039070CF49C0126838681882369F0918157
:10070000A281B3818481911103C09C91892B03C084
:100710009C91809589238C93399683E0E43BF8077C
:1007200039F6C1CF808187FD12C08091000196818A
:1007300098130DC09181A281B3818481911104C06D
:100740009C918095892302C09C91892B8C9339962A
:1007500083E0E43BF80731F7FF91EF91BF91AF9150
:100760009F918F917F916F914F913F912F910F901A
:100770000FBE0F901F901895EF92FF920F931F934B
:10078000CF93DF93EC01162FF42E088589858F3FD8
:1007900019F09A859111082F8F818F3F29F48CE7EA
:1007A00092E00197F1F743C060E089890E94660AF0
:1007B00060E08A890E94660A60E08B890E94660A6E
:1007C00060E08C890E94660A61E08F810E94840942
:1007D00060E08E810E94840961E0802F0E9484097C
:1007E0008C890E945B09E82E60E0802F0E948409BA
:1007F00061E0802F0E94840960E0802F0E948409BC
:1008000081E0E81649F361E089890E94660A61E0A7
:100810008A890E94660A61E08B890E94660A61E00B
:100820008C890E94660A60E08F810E9484096F2D86
:100830008E810E948409612F607189890E948409D8
:10084000612F60728A890E948409612F60748B898C
:100850000E948409612F60788C890E94840961E07C
:10086000802F0E94840960E0802F0E948409612FFC
:10087000617089890E948409612F62708A890E944F
:100880008409612F64708B890E948409612F6870CC
:100890008C890E94840961E0802F0E94840960E0B5
:1008A000802FDF91CF911F910F91FF90EF900C94CB
:1008B000840940E00C94BC030F931F93CF93DF9304
:1008C000EC018E89841710F44FEF480F4D876C8729
:1008D0001E86FE01E40FF11D8789082F00749B8599
:1008E000690F8F73680F683214F0685202C067FD99
:1008F000685D062B142F12708A8590E0212F30E05E
:100900008217930739F06B8D6D7F6B8F6860CE0116
:100910000E9459041A87602F6068CE01DF91CF9141
:100920001F910F910C9459041F93CF93DF93EC0107
:10093000162F8B85811103C08E85882329F04D8564
:100940006C85CE010E945C041D3039F01A3029F00C
:1009500041E0612FCE010E94BC031E869F858C85DD
:100960002D8591110EC08F5F8C871D3041F0082EB0
:10097000000C990B4D8950E0841795077CF01C867C
:1009800009C081508C871A3011F087FF07C08D890C
:1009900081508C872F5F2D8781E08E872D85022ED9
:1009A000000C330B8E8990E0281739070CF01D8658
:1009B00081E090E0DF91CF911F9108951F920F92F7
:1009C0000FB60F9211242F933F934F935F936F9322
:1009D0007F938F939F93AF93BF93EF93FF938091F8
:1009E000B900887F803609F49CC068F5883209F424
:1009F0005BC090F4803109F454C038F4882309F4C2
:100A0000F6C0883009F44DC0F6C0883109F44CC0F6
:100A1000803209F45DC0EFC0803409F468C048F446
:100A2000803309F455C0883309F0E5C08093D002C3
:100A3000D8C0803509F44FC0883509F45DC08834CA
:100A400009F0D9C0D6C0883909F4C7C0A8F48837DE
:100A500009F467C038F4883609F463C0803709F4B4
:100A600060C0C9C0883809F4B8C0803909F45FC0D3
:100A7000803809F0C0C05BC0803B09F486C038F400
:100A8000803A09F466C0883A09F47FC0B4C0803C5B
:100A900009F4A7C0883C09F4A4C0883B09F48AC0C3
:100AA000AAC08091F60210C09091F5028091F402E4
:100AB000981770F5E091F50281E08E0F8093F502B2
:100AC000F0E0EC52FD4F80818093BB0085EC86C046
:100AD0008093D0028EC0E091F50281E08E0F80936A
:100AE000F5028091BB00F0E0EC52FD4F80839091C5
:100AF000F5028091F4026EC0E091F50281E08E0F64
:100B00008093F5028091BB00F0E0EC52FD4F8083B2
:100B10008091D30281116DC081E08093D20284EA7A
:100B200061C083E08093D1021092CF02CFCF809139
:100B3000CF02803208F051C0E091CF0281E08E0FE9
:100B40008093CF028091BB00F0E0E155FD4F8083A0
:100B5000BDCF85EC8093BC001092D1028091CF0272
:100B6000803230F4E091CF02F0E0E155FD4F108289
:100B70006091CF0270E0E091AD02F091AE028FEA99
:100B800092E009951092CF0236C084E08093D102A2
:100B90001092AC021092AB02E091A902F091AA026D
:100BA00009958091AB02811105C081E08093AB0271
:100BB00010928902E091AC0281E08E0F8093AC022A
:100BC000F0E0E757FD4F80818093BB009091AC022D
:100BD0008091AB02981708F479CF85E88093BC0028
:100BE0000AC085EC8093BC001092D10204C0109220
:100BF000D0020E941A02FF91EF91BF91AF919F9195
:100C00008F917F916F915F914F913F912F910F90B5
:100C10000FBE0F901F9018951F93CF93DF93EC0199
:100C2000162F0E94E613181739F0612FCE01DF91BD
:100C3000CF911F910C94EE13DF91CF911F910895E6
:100C40000C94E6138F929F92AF92BF92CF92DF9255
:100C5000EF92FF92CF936C018FB7F89480907A0453
:100C600090907B04A0907C04B0907D048FBF0D2CED
:100C7000000CEE08FF082FB7F89480917A04909149
:100C80007B04A0917C04B0917D042FBF8819990941
:100C9000AA09BB09C816D906EA06FB06F8F0A8950A
:100CA000C4E661E070E080E090E00E944F0B2FB757
:100CB000F89480917A0490917B04A0917C04B09187
:100CC0007D042FBF88199909AA09BB098C159D05B8
:100CD000AE05BF0580F6C15021F7CDCFA895CF91C5
:100CE000FF90EF90DF90CF90BF90AF909F908F904C
:100CF000089590E08D30910558F5FC01E05CFF4FC0
:100D00000C94631460E679E029C060E875E226C0BF
:100D100060E478E323C060E07BE420C060E076E933
:100D20001DC060E071EE1AC060E072EC81E017C097
:100D300060E074E883E013C060E078E087E00FC013
:100D400060E070E18EE00BC060E472E48FE007C009
:100D5000089560EB74E002C060EC72E180E090E026
:100D60000895CF9389E090E00E942006C82F1816BE
:100D700034F062E789E090E00E940C06C2E710922E
:100D800084021092830210928802109287021092BD
:100D9000D10281E08093D3021092D20261E082E11D
:100DA0000E94840961E083E10E9484098091B90076
:100DB0008E7F8093B9008091B9008D7F8093B900B8
:100DC0008FE28093B80085E48093BC008CE492E0CD
:100DD0009093AA028093A9028DE492E09093AE02D0
:100DE0008093AD02CC0FC093BA008FEB92E090934A
:100DF000860280938502CF9108951F920F920FB6BD
:100E00000F9211242F933F938F939F93EF93FF9310
:100E10002EB58091560290E001968F7799273091F8
:100E20005702381741F0E0915602F0E0EA52FE4FC7
:100E3000208380935602FF91EF919F918F913F9174
:100E40002F910F900FBE0F901F901895CF930E9477
:100E5000FD0740E060E08DE594E00E945C04C0E0A6
:100E60008C2F90E02091D3016091D401269F9001B6
:100E700011248217930754F4FC01ED57FE4F608153
:100E80008DE594E00E949404CF5FEACF8091D50174
:100E90000E945714482F692F8DE594E0CF910C9450
:100EA0005C041092D5018091D4014091D301849FBC
:100EB000A001112420E030E2822F90E084179507F2
:100EC00034F4FC01ED57FE4F30832F5FF5CF0895CA
:100ED000833081F028F4813099F08230A1F00895B8
:100EE0008730A9F08830B9F08430D1F48091800047
:100EF0008F7D03C0809180008F778093800008955C
:100F000084B58F7702C084B58F7D84BD08958091AC
:100F1000B0008F7703C08091B0008F7D8093B000C8
:100F20000895CF92DF92EF92FF926B017C0160E017
:100F300070E38AE290E0A70196010E942614DA018C
:100F4000C9010197A109B109B695A795979587950C
:100F50009C01E091C403F091C50382E080832115D8
:100F600080E13807B8F0E091C403F091C503108226
:100F700060E078E185E190E0A70196010E942614E7
:100F8000DA01C9010197A109B109B695A79597950D
:100F900087959C01E091C003F091C1033083E091FB
:100FA000C203F091C30320831092CC03E091C803E5
:100FB000F091C90386E08083E091C603F091C703F6
:100FC000808180618083E091C603F091C7038081B6
:100FD00088608083E091C603F091C70380818068B8
:100FE0008083E091C603F091C70380818F7D808369
:100FF000FF90EF90DF90CF900895809166048F3F2F
:10100000F1F082E08093670461E08DE594E00E9456
:1010100059041092670461E08DE594E00E94590440
:10102000809164048F3F21F484EA96E10197F1F7FF
:1010300040E060E08DE594E00E945C040DC061E05A
:101040008DE594E00E945904809164048F3F21F45F
:1010500084EA96E10197F1F7109268040895CF931E
:10106000DF93909166049F3F41F440E0682F8DE547
:1010700094E0DF91CF910C94BC03C82FD09167040A
:101080001092670440E0682F8DE594E00E94BC0355
:1010900082E08093670440E06C2F8DE594E00E942D
:1010A000BC03D0936704DF91CF910895CF92DF9274
:1010B000EF92FF920F931F93CF93DF9387709091DE
:1010C0006604682F70E09F3FC1F423E0660F771F2E
:1010D0002A95E1F760648DE594E00E945904C7EF1A
:1010E000D2E00FEF12E0699141E08DE594E00E94BB
:1010F000BC030C171D07B9F738C0D09167041092D4
:10110000670483E0660F771F8A95E1F7C62FC064F6
:101110006C2F8DE594E00E94590407EF12E09FEFD9
:10112000C92E92E0D92E7801F70161917F0141E04B
:101130008DE594E00E94BC03CE14DF04A9F782E0A1
:10114000809367046C2F8DE594E00E945904F801A8
:1011500061918F0141E08DE594E00E94BC03F2E0D3
:101160000F3F1F07A1F7D0936704DF91CF911F9125
:101170000F91FF90EF90DF90CF9008950F931F9302
:10118000CF93DF938C01C0E0D0E0F801EC0FFD1F9E
:101190006491662341F08DE594E00E949404892BCC
:1011A00011F02196F2CFCE01DF91CF911F910F91D7
:1011B0000895009769F0FC0101900020E9F731974C
:1011C000AF01481B590BBC018DE594E00C94F30072
:1011D00080E090E008958F929F92AF92BF920F931C
:1011E0001F93CF93DF93CDB7DEB7A1970FB6F894D7
:1011F000DEBF0FBECDBF19A2423008F44AE08E0117
:101200000F5D1F4F842E912CA12CB12CA5019401B0
:101210000E942614E62FB901CA0101501109EA30D3
:1012200014F4E05D01C0E95CD801EC93232B242B7E
:10123000252B61F7C8010E94D908A1960FB6F89432
:10124000DEBF0FBECDBFDF91CF911F910F91BF9039
:10125000AF909F908F900895AB01682F4115510575
:1012600021F48DE594E00C94940470E080E090E02B
:101270000C94EB08CF92DF92EF92FF92CF93DF9323
:101280006B017C016DE28DE594E00E949404EC0119
:1012900066277727CB016C197D098E099F094AE0E3
:1012A0000E94EB088C0F9D1FDF91CF91FF90EF9074
:1012B000DF90CF900895CF93DF93282F30E0F9018E
:1012C000E75BFE4F8491F901E35AFE4FD491F90197
:1012D000E558FE4FC491CC2391F081110E9468071C
:1012E000EC2FF0E0EE0FFF1FE15CFE4FA591B491F3
:1012F000EC91ED2381E090E021F480E002C080E0F9
:1013000090E0DF91CF9108951F93CF93DF93282F23
:1013100030E0F901E75BFE4F8491F901E35AFE4F9B
:10132000D491F901E558FE4FC491CC23C1F0162F9A
:1013300081110E946807EC2FF0E0EE0FFF1FEF58BD
:10134000FE4FA591B4919FB7F894111104C08C91F0
:10135000D095D82302C0EC91DE2BDC939FBFDF91A8
:10136000CF911F910895CF93DF93C82F682F61709D
:1013700080916E040E948409D0E0D595C7956C2FAA
:10138000617080916F040E948409D595C7956C2F78
:101390006170809170040E948409D595C7956C2F67
:1013A0006170809171040E948409C09165048091EC
:1013B00066048F3F21F0909167049111C82F61E07E
:1013C0008C2F0E94840960E08C2FDF91CF910C94C8
:1013D00084091F93CF93DF93C62F823010F018E05B
:1013E00001C010E082E124E93AE3F9013197F1F715
:1013F0008150D9F760E0809163040E94840960E025
:101400008C2F0E94840960E0809163040E9484090B
:1014100083E00E94B3098CE097E20197F1F783E043
:101420000E94B309C8E2D1E0CE010197F1F783E051
:101430000E94B309CE010197F1F782E00E94B3093F
:101440002197F1F7612F60628DE594E00E945904C5
:1014500084E0809378048CE00E942F080E94FD07AE
:1014600082E08093790466E08DE594E0DF91CF918E
:101470001F910C945904CF93C62F809372048093CC
:101480006204609373046093610490917404980FF4
:101490009093760490917504890F809377046091FE
:1014A00065048C2F0E94E909609166046F3F61F02A
:1014B0001092760480E48093770482E0809367043E
:1014C0008C2FCF910C94E909CF910895CF93DF939E
:1014D00090E0FC01E35AFE4F2491FC01E558FE4FD9
:1014E0008491882361F190E0880F991FFC01EB5CE7
:1014F000FE4FC591D491FC01EF58FE4FA591B491D8
:10150000611109C09FB7F894888120958223888350
:10151000EC912E230BC0623061F49FB7F894888160
:10152000322F309583238883EC912E2B2C939FBFF1
:1015300006C08FB7F894E8812E2B28838FBFDF91E8
:10154000CF910895E0E0F3E020E030E0AFEF90814C
:10155000933051F499E0929FF001939FF00D112484
:10156000E050FD4F85830895AF3F11F497FDA22F02
:101570002F5F3F4F39962431310549F7AF3F79F15D
:1015800099E0A902D0011124A050BD4F93E09C9393
:101590009091FF0211969C931197EEE7F1E0E49190
:1015A000F0E0EE0FFF1FEF58FE4F25913491139698
:1015B0003C932E931297E0E6F1E0E4911496EC93BD
:1015C000149715968C93911102C060E001C061E000
:1015D00083E00E94840961E083E00C94660A089528
:1015E0001F93CF93DF93182FEB0161E00E94660AEF
:1015F000209711F460E004C0CF3FD10539F461E0D9
:10160000812FDF91CF911F910C948409E12FF0E09D
:10161000E75BFE4FE491E330F9F048F4E130B9F0D4
:10162000E230A1F584B5806284BDC8BD34C0E73026
:10163000E9F0E83019F1E43049F5809180008062EA
:1016400080938000D0938B00C0938A0024C084B51F
:10165000806884BDC7BD1FC0809180008068809372
:101660008000D0938900C093880015C08091B0009D
:1016700080688093B000C093B3000DC08091B0002B
:1016800080628093B000C093B40005C0C038D1051B
:101690000CF0B5CFAFCFDF91CF911F9108958F920E
:1016A0009F92AF92BF92CF92DF92EF92FF926B0127
:1016B0007C010E94890B4B015C01C114D104E1043F
:1016C000F104F1F00E94890BDC01CB018819990922
:1016D000AA09BB09883E9340A105B10570F321E03A
:1016E000C21AD108E108F10888EE880E83E0981E3E
:1016F000A11CB11CC114D104E104F10419F7DDCF20
:10170000FF90EF90DF90CF90BF90AF909F908F9021
:1017100008959FB7F89440917F04509180046091A0
:1017200081047091820486B5A89B06C08F3F21F08A
:101730004F5F5F4F6F4F7F4F9FBF762F652F542FA7
:1017400044279A01AB01280F311D411D511DA5E011
:10175000B0E00E941B1408951F920F920FB60F92D3
:1017600011242F933F938F939F93AF93BF938091B7
:101770007A0490917B04A0917C04B0917D04309117
:101780007E042DE3230F2D3720F40196A11DB11DFA
:1017900005C020EC230F0296A11DB11D20937E04ED
:1017A00080937A0490937B04A0937C04B0937D048F
:1017B00080917F0490918004A0918104B091820473
:1017C0000196A11DB11D80937F0490938004A09386
:1017D0008104B0938204BF91AF919F918F913F910B
:1017E0002F910F900FBE0F901F901895789484B58D
:1017F000826084BD84B5816084BD85B5826085BD0D
:1018000085B5816085BD80916E00816080936E009A
:10181000109281008091810082608093810080918C
:10182000810081608093810080918000816080933D
:1018300080008091B10084608093B1008091B000FD
:1018400081608093B00080917A00846080937A00F8
:1018500080917A00826080937A0080917A008E7FF6
:1018600080937A0080917A00806880937A00109249
:10187000C100A8950FB6F894A89580916000886182
:1018800080936000109260000FBE8BE090E00E9499
:10189000200691E0811101C090E09093820183E0E5
:1018A00090E00E9420068093D301853040F082E0D2
:1018B0008093D30162E083E090E00E940C0684E014
:1018C00090E00E9420068093D401853140F080E1B1
:1018D0008093D40160E184E090E00E940C0662E015
:1018E00088E00E94660A88E00E945B09892B31F437
:1018F00084E08093D30184E18093D40160E088E0A8
:101900000E94660A6091D3018091D4010E943B0A33
:101910000E9451078AE090E00E942006C82F8F3F66
:1019200031F465E08AE090E00E940C06C5E0809109
:101930008100887F81608093810061E089E00E945E
:10194000660A6C2F70E089E00E94F00A61E085E091
:101950000E94660A61E086E00E94660A61E083E018
:101960000E94660A85E090E00E942006CFEFD0E05A
:10197000BE01681B710985E00E94F00A86E090E0D4
:101980000E942006BE01681B710986E00E94F00AD1
:1019900081E087BB82E08093B1008093B0009AE53C
:1019A0009093B30080937000C0E0D3E084EB93E0A9
:1019B000FE012FEF2083118213821282178210867C
:1019C00039968E179F07B1F71092FF0287E090E0DB
:1019D0000E94200680950E94A20A80E090E0288163
:1019E000233059F429E0289FF001299FF00D11249C
:1019F000E050FD4F1782108605C00196299684316C
:101A0000910569F782E090E00E94200691E0811143
:101A100001C090E090935A02882309F49DC084E1AC
:101A200090E00E9420068F3F09F045C00E94FD070C
:101A300040E060E08DE594E00E945C0485EA90E07F
:101A40000E94BE0841E060E08DE594E00E945C04E5
:101A50008FE990E00E94BE0880E090E00E9420069E
:101A6000809358028D3040F083E08093580263E009
:101A700080E090E00E940C06809158020E94790656
:101A800097FF03C00E943A0903C04AE00E94EB0896
:101A90008CE990E00E94BE086AE070E081E00E945C
:101AA0002C098AE990E00E94BE086AE070E082E0BA
:101AB0000E942C0918C08091D301E090D4018E9D22
:101AC0007001112410E0C12FD0E0CE15DF054CF4D9
:101AD000CE0144960E942006CD57DE4F88831F5FBB
:101AE000F2CF0E94260760E875E280E090E00E9455
:101AF0009107C2E384EB93E00E944E01892BE1F051
:101B000084EB93E00E942C014297B1F40E94FD0700
:101B100040E060E08DE594E00E945C0481E391E0A8
:101B20000E94D90863E080E090E00E940C0684EFF8
:101B300091E00E94220606C08AE090E00E94220600
:101B4000C150C1F60E9451070E94FD0740E060E0CD
:101B50008DE594E00E945C04C4E6D0E010E07E01D4
:101B600028E0E20EF11C07EFC02E02E0D02ECE01DD
:101B70000E942006F60181936F012196EC16FD0666
:101B8000B1F7812F0E9456081F5FE701183039F71F
:101B90006091D3018091D4010E943B0A88E090E0DB
:101BA0000E94200691E0811101C090E090935902BB
:101BB000811159C062E00E94660A80E00E945B09C0
:101BC000019709F450C061E085E00E94660A61E077
:101BD00085E00E948409C0E5A89569E170E080E095
:101BE00090E00E944F0B85E00E945B09892B11F069
:101BF00060E001C061E085E00E94840980E00E940D
:101C00005B09019781F1C15039F7C0E0D0E06FEF77
:101C1000CE010E940C062196C83CD105C1F768E2AE
:101C200070E089E00E94F00A0E94FD078CE391E0D9
:101C30000E94D90841E060E08DE594E00E945C04D8
:101C400089E491E00E94D90861E085E00E9484095E
:101C500084EF91E00E94220685E00E945B09892BB7
:101C600099F360E0F2CF80E090E00E94200680933C
:101C700058028D3040F083E08093580263E080E0AA
:101C800090E00E940C06809158020E9479060E9402
:101C9000910760E08DE00E94660A60E08BE00E94A0
:101CA000660A61E08CE00E94660A60E08AE00E94B9
:101CB000660A80EC8CBD0E94B10683B7817F83BF2A
:101CC00083B7816083BF80917A008F7780937A0099
:101CD00080E880BF8FE380937E0083E080937F0065
:101CE0008091640081608093640078949CE088E136
:101CF0000FB6F894A895809360000FBE9093600093
:101D000022242A94312CFDE1CF2ED12CE12CF12C70
:101D100012E0A3E06A2E712C44244394512CA89520
:101D20000E94F50104E090915702809156029817A5
:101D300009F453C4A895E0915702F0E0EA52FE4F2F
:101D4000C0818091570290E001968F779927809308
:101D500057028091610290916202009709F044C09D
:101D6000CC3719F482E090E0BCC1CE3F29F4509208
:101D7000620240926102D7CFC830C1F48091D50190
:101D8000811109C08091D4019091D301899F802D48
:101D900011248093D501E091D501E150E093D50164
:101DA000F0E0ED57FE4F80E2808391C06C2F8DE50F
:101DB00094E00E949404E091D50181E08E0F80931D
:101DC000D501F0E0ED57FE4FC0833091D401209152
:101DD000D30190E0329F900111248217930709F0FC
:101DE000A2CF1092D5019FCF8230910509F058C241
:101DF00010926202109261028DEF8C0F853008F014
:101E000069C0823081F018F4813049F004C0833019
:101E100069F0843071F0F4E1F093D4010DC080E1F9
:101E20008093D40109C00093D30106C01093D3015D
:101E300003C081E08093D301C091D4016091D301AC
:101E40008C2F0E943B0A0E9451076C2F84E090E087
:101E50000E940C066091D30183E090E00E940C0682
:101E600080918201882309F45ECF0E94FD0740E043
:101E700060E08DE594E00E945C048DEB90E00E94B0
:101E8000BE086AE070E08091D3010E942C09809125
:101E9000D301813041F484EF91E00E9422060E9438
:101EA000FD0740E001C041E060E08DE594E00E9464
:101EB0005C0486EB90E00E94BE086AE070E08091CE
:101EC000D4010E942C0984EF91E00E9422060E9416
:101ED000260729CFC83009F4FFCFC93079F582E051
:101EE00090E00E942006882319F010925A0203C045
:101EF00081E080935A0260915A0282E090E00E9451
:101F00000C0680918201882309F40DCF0E94FD0701
:101F100040E060E08DE594E00E945C0489EC90E094
:101F20000E94BE0880915A02882319F086EC90E046
:101F300002C084EC90E00E94BE08C5CFCA3041F5D3
:101F4000C0E08C2F90E03091D3012091D401329FDA
:101F500090011124821793074CF4FC01ED57FE4FBA
:101F6000608144960E940C06CF5FEBCF8091820186
:101F7000882309F4D8CE0E94FD0740E060E08DE59B
:101F800094E00E945C0488E591E00E94D9089BCF10
:101F9000E5EFEC0FED3008F05DC08E2F90E0FC0116
:101FA0003197EC30F10520F4EC5CFF4F0C94631496
:101FB00081E01BC01093580221C023E020935802F7
:101FC0001DC0009358021AC085E00FC086E00DC006
:101FD00037E03093580212C048E0409358020EC0D8
:101FE00089E003C08AE001C08BE08093580206C0FC
:101FF0009CE09093580202C01092580260915802DF
:1020000080E090E00E940C06809158020E947906C0
:102010004B015C010E94910780918201882309F4A1
:1020200082CE0E94FD0740E060E08DE594E00E94D2
:102030005C0482ED90E00E94BE08B7FE05C0C501B9
:10204000B4010E943A093FCF4AE0C501B4010E94A1
:10205000EB0839CFC83129F47092620260926102B4
:1020600062CEC93139F4E4E0F0E0F0936202E0932B
:10207000610259CECA3169F588E090E00E942006DD
:10208000882319F01092590203C081E0809359020D
:102090006091590288E090E00E940C0680918201D4
:1020A000882309F440CE0E94FD0740E060E08DE502
:1020B00094E00E945C0481EE90E00E94BE08809152
:1020C0005902882319F08EED90E035CF8CED90E029
:1020D00032CF85EE8C0F883048F48093600285E023
:1020E00090E090936202809361021DCE6DED6C0FC3
:1020F000683028F48DE594E00E94940414CECB322D
:1021000019F486E090E0EDCFCC32C9F40E94FD07CF
:1021100040E060E08DE594E00E945C048FEE90E08A
:102120000E94BE086AE070E081E00E942C098DEEFA
:1021300090E00E94BE086AE070E082E0C2CECD323C
:1021400059F40E94FD0740E060E08DE594E00E94B4
:102150005C040E945107E7CDCE3299F481E0809370
:10216000820161E08BE090E00E940C060E94FD0776
:1021700040E060E08DE594E00E945C048AEF90E02E
:10218000DACECF3241F41092820160E08BE090E031
:102190000E940C06C8CDC033C1F481E080935A027E
:1021A00061E082E090E00E940C0680918201882329
:1021B00009F4B9CD0E94FD0740E060E08DE594E0B0
:1021C0000E945C0486E091E0B6CEC133B9F410926F
:1021D0005A0260E082E090E00E940C068091820149
:1021E000882309F4A0CD0E94FD0740E060E08DE562
:1021F00094E00E945C0480E191E09DCECC3711F424
:102200006CE7D5CD80E88C0F8E31A8F48C2F90E050
:10221000A0E0B0E09C01AD0120583109410951090D
:10222000AFEFB0E00E941B14A70196010E94FC13BF
:10223000622F80E018C082E68C0F8E31B8F48C2FAC
:1022400090E0A0E0B0E09C01AD012E5931094109B8
:102250005109AFEFB0E00E941B14A70196010E9444
:10226000FC13622F82E00E94F7125DCD84E48C0F94
:102270008E3108F058CD8C2F90E0A0E0B0E09C01AA
:10228000AD012C5B310941095109AFEFB0E00E946B
:102290001B14A70196010E94FC13622F81E0E3CF7B
:1022A0008430910521F56C2F89E090E00E940C06A6
:1022B0000E94B10680918201882309F489C10E949D
:1022C000FD0740E060E08DE594E00E945C0488E654
:1022D00091E00E94D90860E170E08C2F0E942C09E7
:1022E00084EF91E00E9422060E94260771C181308E
:1022F000910509F0D8C010926202109261028C2FF1
:1023000090E09C01220F232F221F330B2130310537
:10231000D1F46C2F6F776431A0F080EC860F84319C
:1023200048F08CEE860F843140F06455643140F4FF
:1023300043E06EC0682F41E06BC0682F42E068C088
:1023400060E040E065C09C0166E0359527956A95A0
:10235000E1F72130310529F4CF7BCB51C0936002E6
:10236000BECE9C0154E0359527955A95E1F7213072
:10237000310509F052C09C2F9470C3FF20C09923EF
:1023800071F08CE10E942F08809168049FEF980FF4
:1023900090936804993D0CF0C6CC895D0DC088E12E
:1023A0000E942F088091680491E0980F9093680430
:1023B00098320CF4B8CC875280936804B4CC609106
:1023C000D4018091D501992379F08F5F8093D50155
:1023D0002091D30190E0629F90011124821793070E
:1023E00089F41092D5010EC0811107C08091D301EC
:1023F000689F802D11248093D5018091D501815053
:102400008093D5018091D5010E945714482F692FE0
:102410008DE594E00E945C0486CC43E09595879519
:102420004A95E1F70197A9F560917804C0FF06C0CD
:10243000862F816080937804696004C06E7F60930A
:10244000780468608DE594E00E94590460917804F6
:10245000C1FF06C0862F8260809378046A6004C042
:102460006D7F6093780468608DE594E00E94590464
:1024700080917804C2FF06C0982F946090937804EE
:102480008C6004C08B7F8093780488600E942F0842
:102490004ACC2330310509F446CC6C2F8DE594E00D
:1024A0000E94590440CC85309105A1F580915F02CE
:1024B000E82FF0E0E950FD4FC0838F5F883018F4BB
:1024C00080935F0230CC10925F02809160020E9484
:1024D000560887EFA82E82E0B82EC0E0D0E0F501C4
:1024E00061915F01809160029E0148E0849F200D10
:1024F000311D1124C9018C599F4F0E940C06219651
:10250000C830D10561F76091D3018091D4010E9458
:102510003B0A5EC08330910521F56C2F8AE090E084
:102520000E940C066C2F70E089E00E94F00A8091F6
:102530008201882309F44CC00E94FD0740E060E05E
:102540008DE594E00E945C0484E791E00E94D90844
:1025500041E060E08DE594E00E945C046AE070E098
:10256000BCCE069709F0DFCB80915E02E82FF0E049
:10257000E55AFD4FC0838F5F833018F480935E026D
:10258000D2CB10925E02C0915D02D0915C02B090FD
:102590005B026B2D85E090E00E940C06B1016B1987
:1025A000710985E00E94F00A6D2F86E090E00E949C
:1025B0000C06B1016D1B710986E00E94F00A6C2FB8
:1025C00087E090E00E940C068C2F80950E94A20A62
:1025D0001092620210926102A6CB83B7816083BF22
:1025E000889583B78E7F83BF0E94140298CBCF93C8
:1025F000DF93D82FC62F81110AC085E090E00E949A
:102600000C066FEF70E06C1B710985E00BC0823027
:1026100061F486E090E00E940C066FEF70E06C1BA6
:10262000710986E00E94F00A0AC0813041F487E017
:1026300090E00E940C068C2F80950E94A20A809147
:1026400082018823C9F10E94FD0740E060E08DE52A
:1026500094E00E945C04D11103C08BE291E009C0B8
:10266000D23019F485E291E004C0D13021F480E247
:1026700091E00E94BE088DE191E00E94BE082C2FDF
:1026800030E0A4E6B0E00E9448142FEF30E040E0D4
:1026900050E00E94FC13822F6AE070E00E942C0937
:1026A0008BE191E00E94BE0884EF91E00E94220637
:1026B000DF91CF910C942607DF91CF910895CF93AE
:1026C000DF93E4EBF3E01382128288EE93E0A0E064
:1026D000B0E084839583A683B78325E031E031831E
:1026E000208325EC30E03587248724EC30E03787E1
:1026F000268720EC30E0318B208B21EC30E0338BCF
:10270000228B22EC30E0358B248B26EC30E0378BAB
:10271000268B118E128E138E148EE1E5F4E0138257
:10272000128284839583A683B78387E191E09183A6
:102730008083CDE5D4E01B821A8289E291E09983FF
:1027400088838EE08E838FEF8F8390E198878987CF
:102750001A861B861C861D861E861F8681E1898B34
:1027600082E08A8B87E08B8B84E08C8B61E081E157
:102770000E94660A61E082E00E94660A61E087E0EA
:102780000E94660A61E084E00E94660A1F8A80E473
:10279000888F84E1898F84E58A8F61E08E810E9431
:1027A000660A61E08FE00E94660A60E08FE00E94A6
:1027B000840961E088850E94660A61E084E10E94E4
:1027C0003B0A8FE08F83DF91CF910895F999FECF77
:1027D00092BD81BDF89A992780B50895262FF99961
:1027E000FECF1FBA92BD81BD20BD0FB6F894FA9AF4
:1027F000F99A0FBE01960895052E97FB1EF40094DA
:102800000E94131457FD07D00E94261407FC03D022
:102810004EF40C94131450954095309521953F4FEC
:102820004F4F5F4F089590958095709561957F4FBC
:102830008F4F9F4F08950E944814A59F900DB49FFD
:10284000900DA49F800D911D11240895A1E21A2ED0
:10285000AA1BBB1BFD010DC0AA1FBB1FEE1FFF1F44
:10286000A217B307E407F50720F0A21BB30BE40B94
:10287000F50B661F771F881F991F1A9469F76095DB
:102880007095809590959B01AC01BD01CF01089595
:10289000A29FB001B39FC001A39F700D811D1124A1
:1028A000911DB29F700D811D1124911D0895991BDA
:1028B00079E004C0991F961708F0961B881F7A9537
:1028C000C9F780950895EE0FFF1F0590F491E02D54
:1028D000099481E090E0F8940C946E14F894FFCF82
:1028E000FF000000008601F3001D01D3014E012C02
:1028F00001400100000000AE02A302DF0277029B4C
:102900000287027802000000009404F300DF02DE78
:102910000242617564205265736574005379737463
:10292000656D20726573657400506F776572206302
:1029300079636C65206D650053706C61736820521B
:1029400065636F72646564004E6577205457493A39
:1029500020307800436F6E74726173742053657415
:02296000000075
:107E0000112484B714BE81FFF0D085E080938100F7
:107E100082E08093C00088E18093C10086E0809377
:107E2000C2008BE08093C4008EE0C9D0259A86E022
:107E30002DE53DEF91E0309385002093840096BBC3
:107E4000B09BFECF1D9AA8958150A9F7CC24DD24C4
:107E500088248394B5E0AB2EA1E19A2EF3E0BF2EE7
:107E6000A2D0813461F49FD0082FAFD0023811F036
:107E7000013811F484E001C083E08DD089C08234E0
:107E800011F484E103C0853419F485E0A6D080C0E4
:107E9000853579F488D0E82EFF2485D0082F10E0AE
:107EA000102F00270E291F29000F111F8ED06801E7
:107EB0006FC0863521F484E090D080E0DECF843638
:107EC00009F040C070D06FD0082F6DD080E0C81688
:107ED00080E7D80618F4F601B7BEE895C0E0D1E017
:107EE00062D089930C17E1F7F0E0CF16F0E7DF06D8
:107EF00018F0F601B7BEE89568D007B600FCFDCFD4
:107F0000A601A0E0B1E02C9130E011968C91119780
:107F100090E0982F8827822B932B1296FA010C0160
:107F200087BEE89511244E5F5F4FF1E0A038BF0790
:107F300051F7F601A7BEE89507B600FCFDCF97BE46
:107F4000E89526C08437B1F42ED02DD0F82E2BD052
:107F50003CD0F601EF2C8F010F5F1F4F84911BD097
:107F6000EA94F801C1F70894C11CD11CFA94CF0C13
:107F7000D11C0EC0853739F428D08EE10CD085E9AC
:107F80000AD08FE07ACF813511F488E018D01DD067
:107F900080E101D065CF982F8091C00085FFFCCF94
:107FA0009093C60008958091C00087FFFCCF809118
:107FB000C00084FD01C0A8958091C6000895E0E648
:107FC000F0E098E1908380830895EDDF803219F02E
:107FD00088E0F5DFFFCF84E1DECF1F93182FE3DFCA
:107FE0001150E9F7F2DF1F91089580E0E8DFEE27F6
:047FF000FF270994CA
:027FFE00040479
:0400000300007E007B
:00000001FF
