:100000000C94A4000C94CC000C94CC000C94CC0068
:100010000C94CC000C94CC000C94CC000C94E9040F
:100020000C94CC000C94CC000C94CC000C94CC0020
:100030000C94CC000C94CC000C94CC000C94CC0010
:100040000C949F040C944B090C943F030C941903DB
:100050000C94CC000C94CC000C94CC000C94CC00F0
:100060000C9441070C94CC00FA08D308FD08D6087C
:10007000D908DC08DF08E208E508E908ED08F1081E
:10008000F5087310761079107C107F10821085109F
:1000900088108C108E109110941025003A20004288
:1000A0006C756500477265656E004261636B6C69D3
:1000B0006768740000000000240027002A00000088
:1000C00000002300260029000000000800020100B3
:1000D000000304070000000000000000576964747A
:1000E000683A004C696E65733A004E00464600530C
:1000F000706C617368204F0042617564206E6F7789
:100100003A004E0046460049676E6F7265205258AD
:10011000204F000102040810204080010204081052
:100120002001020408102000000000250028002BF8
:100130000004040404040404040202020202020390
:10014000030303030300F61211241FBECFEFD8E010
:10015000DEBFCDBF11E0A0E0B1E0E0E1F8E202C017
:1001600005900D92AA39B107D9F724E0AAE9B1E0C8
:1001700001C01D92AA39B207E1F710E0C4EAD0E04D
:1001800004C02197FE010E94FB13C33AD107C9F7AF
:100190000E946F0C0C9406140C940000CF92DF9216
:1001A000EF92FF920F931F93CF93DF936C017A012D
:1001B0008B01C0E0D0E0CE15DF0589F0D8016D914C
:1001C0008D01D601ED91FC910190F081E02DC601E9
:1001D0000995892B11F47E0102C02196ECCFC7014D
:1001E000DF91CF911F910F91FF90EF90DF90CF9013
:1001F0000895FC01538D448D252F30E0842F90E02D
:10020000821B930B541710F0CF9608950197089511
:10021000FC01918D828D981761F0828DDF01A80F0E
:10022000B11D5D968C91928D9F5F9F73928F90E030
:1002300008958FEF9FEF0895FC01918D828D98179F
:1002400031F0828DE80FF11D858D90E008958FEFDC
:100250009FEF0895FC01918D228D892F90E0805CA5
:100260009F4F821B91098F739927089584ED93E026
:100270000E942A0121E0892B09F420E0822F0895B1
:10028000FC01848DDF01A80FB11DA35ABF4F2C9133
:10029000848D90E001968F739927848FA689B78902
:1002A0002C93A089B1898C9180648C93938D848DDB
:1002B000981306C00288F389E02D80818F7D8083AA
:1002C0000895EF92FF920F931F93CF93DF93EC016A
:1002D00081E0888F9B8D8C8D981305C0E889F98902
:1002E000808185FD24C0F62E0B8D10E00F5F1F4F1F
:1002F0000F731127E02E8C8DE8120CC00FB607FC8F
:10030000FACFE889F989808185FFF5CFCE010E9477
:100310004001F1CF8B8DFE01E80FF11DE35AFF4F35
:10032000F0820B8FEA89FB898081806207C0EE89A9
:10033000FF896083E889F98980818064808381E016
:1003400090E0DF91CF911F910F91FF90EF90089572
:10035000CF93DF93EC01888D8823C9F0EA89FB896C
:10036000808185FD05C0A889B9898C9186FD0FC063
:100370000FB607FCF5CF808185FFF2CFA889B98938
:100380008C9185FFEDCFCE010E944001E7CFDF9138
:10039000CF91089584ED93E00E942A01892BC1F04A
:1003A00084ED93E00E94080120910C0330E02F5F60
:1003B0003F4F2F77332790910D03921759F3E09118
:1003C0000C03F0E0E457FD4F808320930C03E2CF51
:1003D00008950E94360181110C94CA01089583305A
:1003E00081F028F4813099F08230A1F008958730AF
:1003F000A9F08830B9F08430D1F4809180008F7DED
:1004000003C0809180008F7780938000089584B529
:100410008F7702C084B58F7D84BD08958091B00030
:100420008F7703C08091B0008F7D8093B0000895D6
:100430009FB7F8944091350250913602609137028F
:100440007091380286B5A89B06C08F3F21F04F5FA0
:100450005F4F6F4F7F4F9FBF762F652F542F4427DD
:100460009A01AB01280F311D411D511DA5E0B0E0DF
:100470000E94B313089585ED8093BC008091BC0069
:1004800084FDFCCF10920A0208954091E401262FCA
:1004900030E0240F311D21323105DCF420910A02B5
:1004A0002430C9F4FC0180E090E0861758F43091C4
:1004B000E4012191DC01AE53BE4FA30FB11D2C937B
:1004C0000196F3CF8091E401680F6093E40180E02E
:1004D000089581E0089582E00895E091C001F091CF
:1004E000C101309729F01092BF011092BE0109940A
:1004F0000895CF93DF93AC01E091BC01F091BD0171
:100500003097F1F09091BB018091BA019817C0F03B
:1005100090E0292F30E02617370754F4D901A6566A
:10052000BE4FEA01C20FD31F88818C939F5FF1CF2A
:100530001092BB016093BA01CB01DF91CF91099476
:10054000DF91CF9108950895E091BB018091BA01A8
:10055000E81730F4F0E0E656FE4F808190E0089511
:100560008FEF9FEF08959091BB018091BA0198178A
:1005700050F4E92FF0E0E656FE4F208130E09F5F17
:100580009093BB0102C02FEF3FEFC9010895809106
:10059000BA0190E02091BB01821B91090895CF938D
:1005A000DF9300D0CDB7DEB7CB01642F49835A83E8
:1005B0000E9445024981842F5A81952F0F900F90F8
:1005C000DF91CF910895CF93DF931F92CDB7DEB720
:1005D000698361E0CE0101960E94450281E090E0CE
:1005E0000F90DF91CF9108959091BA018091BB0156
:1005F0009817C1F081E794E00E94B30220910C03A8
:1006000030E02F5F3F4F2F77332790910D039217E4
:1006100059F3E0910C03F0E0E457FD4F8083209301
:100620000C03E2CF0895089580E090E008950E94C1
:1006300001141F920F920FB60F9211242F933F9324
:100640004F935F936F937F938F939F93AF93BF93DA
:10065000EF93FF9384ED93E00E944001FF91EF91AF
:10066000BF91AF919F918F917F916F915F914F91CA
:100670003F912F910F900FBE0F901F9018951F92D2
:100680000F920FB60F9211242F938F939F93EF9396
:10069000FF93E091E403F091E5038081E091EA03A8
:1006A000F091EB0382FD12C090818091ED038F5F8A
:1006B0008F732091EE03821751F0E091ED03F0E08B
:1006C000EC52FC4F958F8093ED0301C08081FF9128
:1006D000EF919F918F912F910F900FBE0F901F90D0
:1006E0001895CF93DF93282F30E0F901E853FF4F9F
:1006F0008491F901ED5EFE4FD491F901EF5CFE4F5C
:10070000C491CC2391F081110E94EF01EC2FF0E015
:10071000EE0FFF1FE254FF4FA591B491EC91ED2332
:1007200081E090E021F480E002C080E090E0DF9181
:10073000CF9108951F93CF93DF93282F30E0F901D5
:10074000E853FF4F8491F901ED5EFE4FD491F9011A
:10075000EF5CFE4FC491CC23C9F0162F81110E948B
:10076000EF01EC2FF0E0EE0FFF1FE95DFE4FA591CA
:10077000B4918FB7F894111105C09C91ED2FE095BD
:10078000E92302C0EC91ED2BEC938FBFDF91CF9169
:100790001F910895CF93DF9390E0FC01ED5EFE4F33
:1007A0002491FC01EF5CFE4F8491882361F190E07D
:1007B000880F991FFC01EC54FF4FC591D491FC01A7
:1007C000E95DFE4FA591B491611109C09FB7F894FE
:1007D0008881209582238883EC912E230BC0623080
:1007E00061F49FB7F8943881822F809583238883A2
:1007F000EC912E2B2C939FBF06C08FB7F894E88105
:100800002E2B28838FBFDF91CF9108951F93CF9315
:10081000DF93182FEB0161E00E94CA03209711F4C7
:1008200060E004C0CF3FD10539F461E0812FDF9152
:10083000CF911F910C949A03E12FF0E0E853FF4F02
:10084000E491E330F9F048F4E130B9F0E230A1F599
:1008500084B5806284BDC8BD34C0E730E9F0E830BB
:1008600019F1E43049F58091800080628093800026
:10087000D0938B00C0938A0024C084B5806884BD67
:10088000C7BD1FC080918000806880938000D09396
:100890008900C093880015C08091B0008068809363
:1008A000B000C093B3000DC08091B000806280930F
:1008B000B000C093B40005C0C038D1050CF0B5CF6E
:1008C000AFCFDF91CF911F9108958F929F92AF92FA
:1008D000BF92CF92DF92EF92FF926B017C010E9458
:1008E00018024B015C01C114D104E104F104F1F0E0
:1008F0000E941802DC01CB0188199909AA09BB09D9
:10090000883E9340A105B10570F321E0C21AD108D9
:10091000E108F10888EE880E83E0981EA11CB11C46
:10092000C114D104E104F10419F7DDCFFF90EF9079
:10093000DF90CF90BF90AF909F908F9008951F92BF
:100940000F920FB60F9211242F933F938F939F9383
:10095000AF93BF938091310290913202A091330204
:10096000B0913402309130022DE3230F2D3720F463
:100970000196A11DB11D05C020EC230F0296A11DFB
:10098000B11D209330028093310290933202A093E4
:100990003302B09334028091350290913602A091D7
:1009A0003702B09138020196A11DB11D8093350226
:1009B00090933602A0933702B0933802BF91AF9163
:1009C0009F918F913F912F910F900FBE0F901F908D
:1009D00018951F920F920FB60F9211240F931F9329
:1009E0002F933F934F935F936F937F938F939F9337
:1009F000AF93BF93CF93DF93EF93FF938091000169
:100A00008F5F80930001882329F0E0E2F3E020E08B
:100A100030E059C000E213E0E6E2F3E0C8E2D3E0E0
:100A2000CE010197DC014C91CF010197DC0141110E
:100A300003C028812223F9F02C9130E0808190E0DE
:100A4000B901681B790B1616170644F4442389F084
:100A5000840F911D8217930764F40AC0672B49F035
:100A60004881442331F0841B9109281739070CF47D
:100A70009C01208302C08C91808380818823C9F0EF
:100A8000CF010597DC018C91AF0142505109D8018B
:100A900012962D913C911397D9019C91DA01811105
:100AA00003C08C91892B03C08C9180958923D90137
:100AB0008C93075F1F4F39962996B3E0043D1B07BF
:100AC00009F0AECFA2CF808187FD15C0E901C05EDD
:100AD000DC4F809100019E8198130DC09981A28105
:100AE000B3818C81911104C09C918095892302C0AF
:100AF0009C91892B8C933996275F3F4F243B31057E
:100B000011F7FF91EF91DF91CF91BF91AF919F913D
:100B10008F917F916F915F914F913F912F911F9195
:100B20000F910F900FBE0F901F9018950F931F936A
:100B3000CF93DF938C01C62F6170FC0181890E94E5
:100B40009A03D0E0D595C7956C2F6170F801828922
:100B50000E949A03D595C7956C2F6170F80183891F
:100B60000E949A03D595C7956C2F6170F80184890E
:100B70000E949A03F801C08581858F3F19F0928504
:100B80009111C82F61E08C2F0E949A0360E08C2F96
:100B9000DF91CF911F910F910C949A03EF92FF92E6
:100BA0000F931F93CF93DF93EC01162FF42E08853C
:100BB00089858F3F19F09A859111082F8F818F3F7A
:100BC00029F48CE792E00197F1F743C060E089894E
:100BD0000E94CA0360E08A890E94CA0360E08B8990
:100BE0000E94CA0360E08C890E94CA0361E08F8181
:100BF0000E949A0360E08E810E949A0361E0802F38
:100C00000E949A038C890E947103E82E60E0802F75
:100C10000E949A0361E0802F0E949A0360E0802F77
:100C20000E949A0381E0E81649F361E089890E94F5
:100C3000CA0361E08A890E94CA0361E08B890E942D
:100C4000CA0361E08C890E94CA0360E08F810E9420
:100C50009A036F2D8E810E949A03612F607189899A
:100C60000E949A03612F60728A890E949A03612F01
:100C700060748B890E949A03612F60788C890E942E
:100C80009A0361E0802F0E949A0360E0802F0E9407
:100C90009A03612F617089890E949A03612F6270A3
:100CA0008A890E949A03612F64708B890E949A033B
:100CB000612F68708C890E949A0361E0802F0E94E6
:100CC0009A0360E0802FDF91CF911F910F91FF90E9
:100CD000EF900C949A030F931F93CF93DF93FC0133
:100CE00021852F3F39F440E0DF91CF911F910F9183
:100CF0000C94CE05162FEC010285128640E00E946E
:100D0000CE0582E08A8740E0612FCE010E94CE05A9
:100D10000A87DF91CF911F910F91089540E00C94C5
:100D2000CE050F931F93CF93DF93EC018E89841729
:100D300010F44FEF480F4D876C871E86FE01E40FBD
:100D4000F11D8789082F00749B85690F8F73680FC9
:100D5000683214F0685202C067FD685D062B142FDC
:100D600012708A8590E0212F30E08217930741F0BE
:100D70008B8D8D7F8B8F682F6860CE010E948E06D1
:100D80001A87602F6068CE01DF91CF911F910F917C
:100D90000C948E061F93CF93DF93EC01162F8B8557
:100DA000811103C08E85882329F04D856C85CE0185
:100DB0000E9491061D3039F01A3029F041E0612F70
:100DC000CE010E94CE051E869F858C852D859111B2
:100DD0000EC08F5F8C871D3041F0082E000C990BE0
:100DE0004D8950E0841795077CF01C8609C081501E
:100DF0008C871A3011F087FF07C08D8981508C874E
:100E00002F5F2D8781E08E872D85022E000C330BFE
:100E10008E8990E0281739070CF01D8681E090E05C
:100E2000DF91CF911F910895CF93DF93EC018985D6
:100E30008F3FC1F082E08A8761E0CE010E948E067A
:100E40001A8661E0CE010E948E068F818F3F21F4C9
:100E500084EA96E10197F1F740E060E0CE010E945C
:100E600091060BC061E0CE010E948E068F818F3FFC
:100E700021F484EA96E10197F1F71B86DF91CF9187
:100E800008951F920F920FB60F9211242F933F9344
:100E90004F935F936F937F938F939F93AF93BF9382
:100EA000EF93FF938091B900887F803609F49CC04E
:100EB00068F5883209F45BC090F4803109F454C0BD
:100EC00038F4882309F4F6C0883009F44DC0F6C020
:100ED000883109F44CC0803209F45DC0EFC0803421
:100EE00009F468C048F4803309F455C0883309F028
:100EF000E5C080930902D8C0803509F44FC0883519
:100F000009F45DC0883409F0D9C0D6C0883909F425
:100F1000C7C0A8F4883709F467C038F4883609F4E4
:100F200063C0803709F460C0C9C0883809F4B8C00C
:100F3000803909F45FC0803809F0C0C05BC0803BD5
:100F400009F486C038F4803A09F466C0883A09F496
:100F50007FC0B4C0803C09F4A7C0883C09F4A4C099
:100F6000883B09F48AC0AAC080912F0210C09091DA
:100F70002E0280912D02981770F5E0912E0281E0EB
:100F80008E0F80932E02F0E0E35FFD4F808180930F
:100F9000BB0085EC86C0809309028EC0E0912E02D2
:100FA00081E08E0F80932E028091BB00F0E0E35F22
:100FB000FD4F808390912E0280912D026EC0E091B2
:100FC0002E0281E08E0F80932E028091BB00F0E014
:100FD000E35FFD4F808380910C0281116DC081E041
:100FE00080930B0284EA61C083E080930A0210922E
:100FF0000802CFCF80910802803208F051C0E09102
:10100000080281E08E0F809308028091BB00F0E01F
:10101000E851FE4F8083BDCF85EC8093BC001092D9
:101020000A0280910802803230F4E0910802F0E078
:10103000E851FE4F10826091080270E0E091E601F5
:10104000F091E70188EE91E009951092080236C010
:1010500084E080930A021092E5011092E401E0918D
:10106000E201F091E30109958091E401811105C04D
:1010700081E08093E4011092C201E091E50181E0FA
:101080008E0F8093E501F0E0EE53FE4F8081809358
:10109000BB009091E5018091E401981708F479CFA5
:1010A00085E88093BC000AC085EC8093BC00109258
:1010B0000A0204C0109209020E943B02FF91EF91C4
:1010C000BF91AF919F918F917F916F915F914F9160
:1010D0003F912F910F900FBE0F901F9018950C9479
:1010E00086130C947E138F929F92AF92BF92CF92F1
:1010F000DF92EF92FF92CF936C018FB7F8948090BC
:10110000310290903202A0903302B09034028FBF2F
:101110000D2C000CEE08FF082FB7F89480913102D7
:1011200090913202A0913302B09134022FBF8819FE
:101130009909AA09BB09C816D906EA06FB06F8F000
:10114000A895C4E661E070E080E090E00E9465044C
:101150002FB7F8948091310290913202A09133021E
:10116000B09134022FBF88199909AA09BB098C15BF
:101170009D05AE05BF0580F6C15021F7CDCFA895DE
:10118000CF91FF90EF90DF90CF90BF90AF909F9066
:101190008F90089590E08D30910558F5FC01EC5C3E
:1011A000FF4F0C94FB1360E679E029C060E875E21C
:1011B00026C060E478E323C060E07BE420C060E008
:1011C00076E91DC060E071EE1AC060E072EC81E06B
:1011D00017C060E074E883E013C060E078E087E067
:1011E0000FC060E070E18EE00BC060E472E48FE05D
:1011F00007C0089560EB74E002C060EC72E180E02B
:1012000090E0089589E090E00E947108181634F08B
:1012100062E789E090E00E946F0882E7880F809380
:10122000BA008DE692E09093E3018093E20189E7B2
:1012300092E09093E7018093E6011092BB01109237
:10124000BA011092BF011092BE0110920A0281E011
:1012500080930C0210920B0261E082E10E949A03DB
:1012600061E083E10E949A038091B9008E7F8093B0
:10127000B9008091B9008D7F8093B9008FE280938F
:10128000B80085E48093BC0084EF92E09093BD01A8
:101290008093BC0108951F920F920FB60F921124F4
:1012A0002F933F938F939F93EF93FF932EB580914E
:1012B0000C0390E001968F77992730910D03381732
:1012C00041F0E0910C03F0E0E457FD4F2083809360
:1012D0000C03FF91EF919F918F913F912F910F9070
:1012E0000FBE0F901F901895CF938DE794E00E944A
:1012F000140740E060E08DE794E00E949106C0E0B2
:101300008C2F90E02091890260918A02269F9001A3
:1013100011248217930754F4FC01E75CFD4F6081B0
:101320008DE794E00E94CA06CF5FEACF80918B02DE
:101330000E94EF13482F692F8DE794E0CF910C9412
:10134000910610928B0280918A0220918902829FDD
:101350009001112440E050E2842F90E0821793071F
:1013600034F4FC01E75CFD4F50834F5FF5CF0895E7
:10137000EF92FF920F931F93CF93DF9300D0CDB7DF
:10138000DEB77C01623010F028E001C020E092E17D
:1013900064E97AE3FB013197F1F79150D9F760E006
:1013A000F70186812A8349830E949A0360E049817C
:1013B000842F0E949A0360E0F70186810E949A03BD
:1013C00063E0C7010E9496058CE097E20197F1F770
:1013D00063E0C7010E94960508E211E0C801019789
:1013E000F1F763E0C7010E949605C8010197F1F784
:1013F00062E0C7010E949605C8010197F1F72A81B2
:10140000622F6062C7010E948E0684E0F701838F1D
:101410006CE0C7010E946B06C7010E94140782E0BE
:10142000F701848F66E0C7010F900F90DF91CF9195
:101430001F910F91FF90EF900C948E06009769F02A
:10144000FC0101900020E9F73197AF01481B590BCF
:10145000BC018DE794E00C94CE0080E090E008950C
:10146000CF92DF92EF92FF926B017C0160E070E31C
:101470008AE290E0A70196010E94BE13DA01C90139
:101480000197A109B109B695A795979587959C01F4
:10149000E091E403F091E50382E08083211580E18F
:1014A0003807B8F0E091E403F091E503108260E0C2
:1014B00078E185E190E0A70196010E94BE13DA0170
:1014C000C9010197A109B109B695A7959795879587
:1014D0009C01E091E003F091E1033083E091E203AD
:1014E000F091E30320831092EC03E091E803F09184
:1014F000E90386E08083E091E603F091E7038081D1
:1015000080618083E091E603F091E7038081886049
:101510008083E091E603F091E70380818068808317
:10152000E091E603F091E70380818F7D8083FF9057
:10153000EF90DF90CF9008951F93CF93DF93EC014E
:10154000142F6D8B6D834E8B4C838F89860F898F03
:10155000888D680F6A8F4885612FCE010E94B80977
:1015600049854F3F61F0198E80E48A8F82E08A8737
:10157000612FCE01DF91CF911F910C94B809DF91BB
:10158000CF911F910895E0E2F3E020E030E0AFEF6B
:101590009081933051F499E0929FF001939FF00D68
:1015A0001124E05EFC4F85830895AF3F11F497FD51
:1015B000A22F2F5F3F4F39962431310549F7AF3FB6
:1015C00079F199E0A902D0011124A05EBC4F93E00B
:1015D0009C9390911F0311969C931197E4E3F1E083
:1015E000E491F0E0EE0FFF1FE95DFE4F259134918D
:1015F00013963C932E931297E6E1F1E0E491149652
:10160000EC93149715968C93911102C060E001C081
:1016100061E083E00E949A0361E083E00C94CA03D6
:101620000895DF92EF92FF920F931F93CF93DF9372
:10163000877090918604682F70E09F3FB9F493E023
:10164000660F771F9A95E1F760648DE794E00E943A
:101650008E06C7E1D3E0699141E08DE794E00E94F6
:10166000CE0583E0CF31D807B1F733C0D0908704DF
:101670001092870483E0660F771F8A95E1F7C62FE3
:10168000C0646C2F8DE794E00E948E0607E113E0A2
:101690007801D8E0D00FF70161917F0141E08DE73B
:1016A00094E00E94CE05DE11F6CF82E0809387049D
:1016B0006C2F8DE794E00E948E06F80161918F01F6
:1016C00041E08DE794E00E94CE05D013F6CFD09292
:1016D0008704DF91CF911F910F91FF90EF90DF90E2
:1016E00008950F931F93CF93DF938C01C0E0D0E058
:1016F000F801EC0FFD1F6491662371F0E0917D0409
:10170000F0917E040190F081E02D8DE794E0099541
:10171000892B11F02196ECCFCE01DF91CF911F9153
:101720000F9108958F929F92AF92BF920F931F9344
:10173000CF93DF93CDB7DEB7A1970FB6F894DEBF96
:101740000FBECDBF19A2423008F44AE08E010F5DF2
:101750001F4F842E912CA12CB12CA50194010E9425
:10176000BE13E62FB901CA0101501109EA3014F481
:10177000E05D01C0E95CD801EC93232B242B252BE1
:1017800061F7C8010E941E0AA1960FB6F894DEBF49
:101790000FBECDBFDF91CF911F910F91BF90AF9042
:1017A0009F908F9008950C941E0ACF92DF92EF9233
:1017B000FF92CF93DF9397FF21C06B017C01E091F3
:1017C0007D04F0917E040190F081E02D6DE28DE7C3
:1017D00094E00995EC0166277727CB016C197D0908
:1017E0008E099F094AE00E94920B8C0F9D1FDF918A
:1017F000CF91FF90EF90DF90CF9008954AE0DF9176
:10180000CF91FF90EF90DF90CF900C94920B0F93BD
:101810001F93CF93DF93C82FD62F062F10E081118F
:101820000AC085E090E00E946F086FEF70E0601BD7
:10183000710B85E00BC0823061F486E090E00E947D
:101840006F086FEF70E0601B710B86E00E9406046A
:101850000AC0813041F487E090E00E946F088D2F2C
:1018600080950E94C30A8DE794E00E94140740E02F
:1018700060E08DE794E00E949106C11103C08AEAFE
:1018800090E009C0C23019F484EA90E004C0C1308D
:1018900021F48FE990E00E94710B8CE990E00E94A6
:1018A000710B9801A4E6B0E00E94E0132FEF30E046
:1018B00040E050E00E949413CA01B9014AE00E943E
:1018C000920B8AE990E00E94710B84EF91E00E94F4
:1018D0007308DF91CF911F910F910C947409CF93EE
:1018E000DF9300D01F92CDB7DEB7789484B58260C5
:1018F00084BD84B5816084BD85B5826085BD85B5B4
:10190000816085BD80916E00816080936E00109231
:1019100081008091810082608093810080918100AC
:10192000816080938100809180008160809380003D
:101930008091B10084608093B1008091B00081609B
:101940008093B00080917A00846080937A008091C7
:101950007A00826080937A0080917A008E7F8093F3
:101960007A0080917A00806880937A001092C1009A
:10197000A8950FB6F894A89580916000886180932F
:101980006000109260000FBE83E090E00E9471083A
:1019900080938902853040F082E08093890262E082
:1019A00083E090E00E946F0884E090E00E9471085C
:1019B00080938A02853140F080E180938A0260E161
:1019C00084E090E00E946F0862E088E00E94CA0311
:1019D00088E00E947103892B31F484E080938902AE
:1019E00084E180938A0260E088E00E94CA0340910B
:1019F000890260918A028DE794E00E949C0A0E940D
:101A0000A1098AE090E00E947108182F8F3F31F4FD
:101A100065E08AE090E00E946F0815E08091810007
:101A2000887F81608093810061E089E00E94CA0321
:101A3000612F70E089E00E94060461E085E00E9469
:101A4000CA0361E086E00E94CA0361E083E00E946D
:101A5000CA0385E090E00E9471080FEF10E0B80122
:101A6000681B710985E00E94060486E090E00E94F0
:101A70007108B801681B710986E00E94060481E0C4
:101A800087BB82E08093B1008093B0009AE5909389
:101A9000B3008093700000E213E0F80180E090E072
:101AA0002FEF2083DC01A05EBC4F11961C92119792
:101AB0001382128217961C92179718961C923996C9
:101AC0000996843B910569F710921F0387E090E027
:101AD0000E94710880950E94C30A80E090E0F8019E
:101AE0002081233059F429E0289FF001299FF00D2F
:101AF0001124E05EFC4F1782108606C00196075F36
:101B00001F4F8431910559F782E090E00E947108DF
:101B1000823018F480930E0308C081E080930E0396
:101B200061E082E090E00E946F0880910E038823BC
:101B300009F48CC084E190E00E9471088F3F49F065
:101B40008091890200918A02809F80011124F12CEA
:101B50002FC08DE794E00E94140740E060E08DE71D
:101B600094E00E94910681E391E00E94D30B41E052
:101B700060E08DE794E00E94910682E491E00E948B
:101B8000D30B80E090E00E94710880930F038D30AA
:101B900040F083E080930F0363E080E090E00E94D8
:101BA0006F0880910F030E94CA080E94D50B11C0D4
:101BB000CF2CD12CC016D10654F4C60144960E94F5
:101BC0007108F601E75CFD4F8083F394F1CF0E942A
:101BD000740960E875E280E090E00E94300A12E348
:101BE00084ED93E00E942A01892BF1F084ED93E0CB
:101BF0000E9408014297C1F48DE794E00E94140707
:101C000040E060E08DE794E00E94910689E491E075
:101C10000E94D30B63E080E090E00E946F0884EFA5
:101C200091E00E94730806C08AE090E00E94730869
:101C30001150B1F60E94A1098DE794E00E941407AB
:101C400040E060E08DE794E00E94910664E6E62EB5
:101C5000F12CB12C87E193E078E0A72EA80E57E194
:101C6000C52E53E0D52E8701C8010E947108F601E8
:101C700081936F010F5F1F4FAE12F6CF8B2D0E9425
:101C8000110BB394F8E0EF0EF11C28E0B212E7CF8D
:101C90004091890260918A028DE794E00E949C0A3B
:101CA00088E090E00E947108823030F060E088E0C7
:101CB00090E00E946F0802C081115DC062E080E088
:101CC0000E94CA0380E00E947103019709F453C087
:101CD00061E085E00E94CA0361E085E00E949A030A
:101CE00010E5A89569E170E080E090E00E9465044D
:101CF00085E00E947103892B11F060E001C061E072
:101D000085E00E949A0380E00E947103019799F197
:101D1000115039F700E010E06FEFC8010E946F0822
:101D20000F5F1F4F083C1105B9F768E270E089E0CA
:101D30000E9406048DE794E00E94140784E591E078
:101D40000E94D30B41E060E08DE794E00E94910691
:101D500081E691E00E94D30B61E085E00E949A0346
:101D600084EF91E00E94730885E00E947103892B43
:101D700099F360E0F2CF80E090E00E9471088093D8
:101D80000F038D3040F083E080930F0363E080E029
:101D900090E00E946F0880910F030E94CA080E9481
:101DA000300A60E08DE00E94CA0360E08BE00E9490
:101DB000CA0361E08CE00E94CA0360E08AE00E94EE
:101DC000CA0380EC8CBD0E94020983B7817F83BF68
:101DD00083B7816083BF80917A008F7780937A0088
:101DE00080E880BF8FE380937E0083E080937F0054
:101DF0008091640081608093640078949CE088E125
:101E00000FB6F894A895809360000FBE9093600081
:101E10009DE1C92ED12CE12CF12C12E023E0222EE1
:101E20003CE0332E4BE0442EA8950E94CA01F8E016
:101E30009F2EA7E08A2EB6E07B2E05E0602E04E000
:101E400084E1582E90910D0380910C03981709F4AA
:101E5000C3C3A895E0910D03F0E0E457FD4F508116
:101E600080910D0390E001968F77992780930D0361
:101E70008091160390911503811156C0911154C0A1
:101E800090911403911120C29091130391111CC2DF
:101E900090911203911118C25C3721F481E0809374
:101EA0001503D0CF5E3F21F481E080931603CACFA3
:101EB0005830D1F480918B02811109C08091890240
:101EC00090918A02899F802D112480938B02E0914A
:101ED0008B02E150E0938B02F0E0E75CFD4F80E283
:101EE00080830E947409AECF652F8DE794E05983FB
:101EF0000E94CA06E0918B0281E08E0F80938B02D4
:101F0000F0E0E75CFD4F5981508330918A022091C7
:101F1000890290E0329F900111248217930709F003
:101F200091CF10928B028ECF992309F4CDC18DEF02
:101F3000850F853008F06BC0823079F018F481305D
:101F400041F004C0833061F0843069F050928A021D
:101F50000DC080E180938A0209C00093890206C007
:101F60001093890203C081E080938902B0908A02B5
:101F7000409189026B2D8DE794E00E949C0A0E949B
:101F8000A1096B2D84E090E00E946F0860918902A6
:101F900083E090E00E946F088DE794E00E941407B0
:101FA00040E060E08DE794E00E94910683EE90E0CF
:101FB0000E94710B6091890270E080E090E04AE03D
:101FC0000E94920B80918902813051F484EF91E05C
:101FD0000E9473088DE794E00E94140740E001C05E
:101FE00041E060E08DE794E00E9491068CED90E086
:101FF0000E94710B60918A0270E080E090E04AE0FC
:102000000E94920B84EF91E00E94730830C0583018
:1020100009F4FFCF593071F582E090E00E94710819
:10202000B82E8DE794E00E94140740E060E08DE751
:1020300094E00E9491068FEE90E00E94710B31E0D7
:10204000B31206C08CEE90E00E94710B60E005C0F8
:102050008AEE90E00E94710B61E084EF91E0698369
:102060000E947308698182E090E00E946F080E94DC
:10207000740927C15A3029F5B12C8B2D90E030918D
:10208000890220918A02329F9001112482179307BE
:102090004CF4FC01E75CFD4F608144960E946F08A0
:1020A000B394EBCF8DE794E00E94140740E060E02A
:1020B0008DE794E00E94910680E791E00E94D30BA7
:1020C000A1CFE5EFE50FED3008F055C08E2F90E081
:1020D000FC013197EC30F10520F4EF5BFF4F0C94DD
:1020E000FB1381E016C010930F0320C020920F0352
:1020F0001DC000930F031AC060920F0317C07092A7
:102100000F0314C080920F0311C090920F030EC0F2
:1021100089E080930F030AC08AE0FBCF40920F034F
:1021200005C030920F0302C010920F0360910F039D
:1021300080E090E00E946F088DE794E00E94140711
:1021400040E060E08DE794E00E94910688EF90E027
:102150000E94710B80910F030E94CA080E94D50B48
:1021600084EF91E00E94730880910F030E94CA08D7
:102170000E94300A7CCF583121F481E0809314030F
:10218000A0C0593121F481E0809313039AC05A31E1
:1021900051F588E090E00E947108B82E8DE794E038
:1021A0000E94140740E060E08DE794E00E949106F1
:1021B00087E091E00E94710B41E0B41206C084E018
:1021C00091E00E94710B60E005C082E091E00E9406
:1021D000710B61E084EF91E069830E94730869816B
:1021E00088E090E042CF5D3269F48DE794E00E9490
:1021F000140740E060E08DE794E00E9491060E94A1
:10220000A1095FC080E8850F8E31A8F4852F90E08A
:10221000A0E0B0E09C01AD0120583109410951090D
:10222000AFEFB0E00E94B313A70196010E94941390
:10223000622F80E031C082E6850F8E31A8F4852FB1
:1022400090E0A0E0B0E09C01AD012E5931094109B8
:102250005109AFEFB0E00E94B313A70196010E94AD
:102260009413622F82E018C084E4850F8E31B8F495
:10227000852F90E0A0E0B0E09C01AD012C5B31091E
:1022800041095109AFEFB0E00E94B313A7019601D5
:102290000E949413622F81E00E94070C12C085EE09
:1022A000850F883030F48093110381E0809312030E
:1022B00008C06DED650F693020F48DE794E00E9451
:1022C000CA0610921503BECD90911303992339F1DC
:1022D000652F89E090E059830E946F080E940209EF
:1022E0008DE794E00E94140740E060E08DE794E001
:1022F0000E94910680E891E00E94D30B5981652FDE
:1023000070E080E090E040E10E94920B84EF91E069
:102310000E9473080E9474091092130393CD8823BE
:1023200009F4E2C0852F90E09C01220F232F221F89
:10233000330B21303105D1F4652F6F776431A0F074
:1023400080EC860F843148F08CEE860F843140F0AB
:102350006455643140F443E075C0682F41E072C0B9
:10236000682F42E06FC060E040E06CC09C0176E006
:10237000359527957A95E1F72130310541F45F7B5A
:102380005B515093110381E080931203AAC09C011A
:1023900064E0359527956A95E1F72130310509F01C
:1023A00056C0952F947053FF24C0992381F06CE19F
:1023B0008DE794E00E946B06809188049FEF980F50
:1023C00090938804993D0CF08CC0895D0FC068E142
:1023D0008DE794E00E946B068091880491E0980F4D
:1023E0009093880498320CF47CC0875280938804C0
:1023F00078C060918A0280918B02992379F08F5F77
:1024000080938B022091890290E0629F90011124B9
:102410008217930789F410928B020EC0811107C0B6
:1024200080918902869F802D112480938B02809158
:102430008B02815080938B0280918B020E94EF135C
:10244000482F692F8DE794E00E9491064AC043E02F
:10245000959587954A95E1F70197D9F5609198048C
:1024600050FF06C0862F816080939804696004C085
:102470006E7F6093980468608DE794E059830E94B2
:102480008E0659816091980451FF06C0862F8260A4
:10249000809398046A6004C06D7F609398046860BC
:1024A0008DE794E059830E948E06598160919804CB
:1024B00052FF06C0862F8460809398046C6004C02D
:1024C0006B7F6093980468608DE794E00E946B06D0
:1024D00008C02330310529F0652F8DE794E00E9474
:1024E0008E0610921603AECC809112038823F1F170
:1024F00080911003E82FF0E0E95EFC4F50838F5F7E
:1025000080931003883008F49DCC109210038091C2
:1025100011030E94110B87E1A82E83E0B82E1B82C5
:102520001A82F50161915F01809111032A813B813B
:1025300048E0849F200D311D1124C9018C599F4F03
:102540000E946F082A813B812F5F3F4F3B832A8384
:102550002830310531F74091890260918A028DE778
:1025600094E00E949C0A109212036CCC8091140398
:10257000882309F467CC652F8AE090E059830E9494
:102580006F085981652F70E089E00E9406048DE78D
:1025900094E00E94140740E060E08DE794E00E9420
:1025A00091068CE891E00E94D30B41E060E08DE75A
:1025B00094E00E9491065981652F70E080E090E0E0
:1025C0004AE00E94920B84EF91E00E9473080E94FF
:1025D00074091092140336CC83B7816083BF889549
:1025E00083B78E7F83BF0E94E9011ECCCF93DF9318
:1025F000E4EDF3E01382128288EE93E0A0E0B0E015
:1026000084839583A683B78325E031E031832083DB
:1026100025EC30E03587248724EC30E037872687A7
:1026200020EC30E0318B208B21EC30E0338B228B9F
:1026300022EC30E0358B248B26EC30E0378B268B78
:10264000118E128E138E148EE1E7F4E01382128243
:1026500084839583A683B78387E191E09183808308
:10266000CDE7D4E01B821A8289E291E099838883C6
:102670008EE08E838FEF8F8390E1988789871A860B
:102680001B861C861D861E861F8681E1898B82E043
:102690008A8B87E08B8B84E08C8B61E081E10E94E8
:1026A000CA0361E082E00E94CA0361E087E00E9401
:1026B000CA0361E084E00E94CA031F8A80E4888F15
:1026C00084E1898F84E58A8F61E08E810E94CA034C
:1026D00061E08FE00E94CA0360E08FE00E949A03ED
:1026E00061E088850E94CA0341E064E1CE010E9456
:1026F0009C0A8FE08F83DF91CF910895F999FECFE7
:1027000092BD81BDF89A992780B50895262FF99931
:10271000FECF1FBA92BD81BD20BD0FB6F894FA9AC4
:10272000F99A0FBE01960895052E97FB1EF40094AA
:102730000E94AB1357FD07D00E94BE1307FC03D0C5
:102740004EF40C94AB1350954095309521953F4F26
:102750004F4F5F4F089590958095709561957F4F8D
:102760008F4F9F4F08950E94E013A59F900DB49F37
:10277000900DA49F800D911D11240895A1E21A2EA1
:10278000AA1BBB1BFD010DC0AA1FBB1FEE1FFF1F15
:10279000A217B307E407F50720F0A21BB30BE40B65
:1027A000F50B661F771F881F991F1A9469F76095AC
:1027B0007095809590959B01AC01BD01CF01089566
:1027C000A29FB001B39FC001A39F700D811D112472
:1027D000911DB29F700D811D1124911D0895991BAB
:1027E00079E004C0991F961708F0961B881F7A9508
:1027F000C9F780950895EE0FFF1F0590F491E02D25
:10280000099481E090E0F8940C940614F894FFCFBA
:10281000FF000000006101CE00F900A8012A0108B4
:10282000011C0100000000E302CF021403A302C751
:1028300002B302A40200000000CA06CE0014031373
:1028400003537061726B46756E204F70656E4C431A
:102850004400426175643A2000426175642052650B
:102860007365740053797374656D20726573657454
:1028700000506F776572206379636C65206D650029
:1028800053706C617368205265636F726465640095
:102890004E6577205457493A20307800436F6E7464
:0A28A0007261737420536574000028
:00000001FF
