:200000000C94B8000C94E0000C94E0000C94E0000C94E0000C94E0000C94E0000C943903AC
:200020000C94E0000C94E0000C94E0000C94E0000C94E0000C94E0000C94E0000C94E000C0
:200040000C94E90B0C94B5070C9407030C94E1020C94E0000C94E0000C94E0000C94E00083
:200060000C9491050C94E0003E104110451048104C104E1050105410561058105C10601056
:2000800064073D07670740074307460749074C074F07530757075B075F072E0020760042E6
:2000A0006175643A00537061726B46756E204F70656E4C43440057696474683A004C696EC0
:2000C00065733A004E0046460053706C617368204F0042617564206E6F773A004E00464656
:2000E0000049676E6F7265205258204F002E004669726D7761726520760025003A200042A1
:200100006C756500477265656E004261636B6C696768740000000000240027002A000000AA
:20012000000023002600290000000008000201000003040700000000000000000102040825
:200140001020408001020408102001020408102000000000250028002B00040404040404A1
:200160000404020202020202030303030303811311241FBECFEFD8E0DEBFCDBF11E0A0E0A3
:20018000B1E0E6E2F9E202C005900D92A238B107D9F724E0A2E8B1E001C01D92A338B207B0
:2001A000E1F710E0C8EBD0E004C02197FE010E948614C73BD107C9F70E94330C0C9491149D
:2001C0000C940000CF92DF92EF92FF920F931F93CF93DF936C017A018B01C0E0D0E0CE15CC
:2001E000DF0589F0D8016D918D01D601ED91FC910190F081E02DC6010995892B11F47E01AF
:2002000002C02196ECCFC701DF91CF911F910F91FF90EF90DF90CF900895FC01538D448D9B
:20022000252F30E0842F90E0821B930B541710F0CF96089501970895FC01918D828D981781
:2002400061F0828DDF01A80FB11D5D968C91928D9F5F9F73928F90E008958FEF9FEF0895C3
:20026000FC01918D828D981731F0828DE80FF11D858D90E008958FEF9FEF0895FC01918D8D
:20028000228D892F90E0805C9F4F821B91098F739927089584EB93E00E943E0121E0892BAF
:2002A00009F420E0822F0895FC01848DDF01A80FB11DA35ABF4F2C91848D90E001968F739E
:2002C0009927848FA689B7892C93A089B1898C9180648C93938D848D981306C00288F389F2
:2002E000E02D80818F7D80830895EF92FF920F931F93CF93DF93EC0181E0888F9B8D8C8D64
:20030000981305C0E889F989808185FD24C0F62E0B8D10E00F5F1F4F0F731127E02E8C8DAA
:20032000E8120CC00FB607FCFACFE889F989808185FFF5CFCE010E945401F1CF8B8DFE018D
:20034000E80FF11DE35AFF4FF0820B8FEA89FB898081806207C0EE89FF896083E889F9898B
:2003600080818064808381E090E0DF91CF911F910F91FF90EF900895CF93DF93EC01888D23
:200380008823C9F0EA89FB89808185FD05C0A889B9898C9186FD0FC00FB607FCF5CF80814B
:2003A00085FFF2CFA889B9898C9185FFEDCFCE010E945401E7CFDF91CF91089584EB93E05D
:2003C0000E943E01892BC1F084EB93E00E941C012091550230E02F5F3F4F2F7733279091E1
:2003E0005602921759F3E0915502F0E0EB52FE4F808320935502E2CF08950E944A018111B4
:200400000C94DE01089585ED8093BC008091BC0084FDFCCF1092D10208954091AB02262F81
:2004200030E0240F311D21323105DCF42091D1022430C9F4FC0180E090E0861758F43091C6
:20044000AB022191DC01A757BD4FA30FB11D2C930196F3CF8091AB02680F6093AB0280E089
:20046000089581E0089582E00895E0918702F0918802309729F0109286021092850209940D
:200480000895CF93DF93AC01E0918302F09184023097F1F090918202809181029817C0F001
:2004A00090E0292F30E02617370754F4D901AF59BD4FEA01C20FD31F88818C939F5FF1CF1F
:2004C0001092820260938102CB01DF91CF910994DF91CF9108950895E091820280918102B4
:2004E000E81730F4F0E0EF59FD4F808190E008958FEF9FEF089590918202809181029817D6
:2005000050F4E92FF0E0EF59FD4F208130E09F5F9093820202C02FEF3FEFC901089580913F
:20052000810290E020918202821B91090895CF93DF9300D0CDB7DEB7CB01642F49835A83FA
:200540000E940D024981842F5A81952F0F900F90DF91CF910895CF93DF931F92CDB7DEB785
:20056000698361E0CE0101960E940D0281E090E00F90DF91CF910895909181028091820221
:200580009817C1F081E594E00E947B022091550230E02F5F3F4F2F773327909156029217AC
:2005A00059F3E0915502F0E0EB52FE4F808320935502E2CF0895089580E090E008950E94C6
:2005C0008C141F920F920FB60F9211242F933F934F935F936F937F938F939F93AF93BF932A
:2005E000EF93FF9384EB93E00E945401FF91EF91BF91AF919F918F917F916F915F914F913E
:200600003F912F910F900FBE0F901F9018951F920F920FB60F9211242F938F939F93EF935E
:20062000FF93E091C403F091C5038081E091CA03F091CB0382FD12C090818091CD038F5FE8
:200640008F732091CE03821751F0E091CD03F0E0EC54FC4F958F8093CD0301C08081FF9147
:20066000EF919F918F912F910F900FBE0F901F9018951F920F920FB60F9211240F931F9342
:200680002F933F934F935F936F937F938F939F93AF93BF93CF93DF93EF93FF9380910001FC
:2006A0008F5F80930001882329F0E0E0F3E020E030E059C000E013E0E6E0F3E0C8E0D3E0F1
:2006C000CE010197DC014C91CF010197DC01411103C028812223F9F02C9130E0808190E08A
:2006E000B901681B790B1616170644F4442389F0840F911D8217930764F40AC0672B49F077
:200700004881442331F0841B9109281739070CF49C01208302C08C91808380818823C9F049
:20072000CF010597DC018C91AF0142505109D80112962D913C911397D9019C91DA0181118D
:2007400003C08C91892B03C08C9180958923D9018C93075F1F4F39962996B3E0043B1B0715
:2007600009F0AECFA2CF808187FD15C0E901C050DD4F809100019E8198130DC09981A2812C
:20078000B3818C81911104C09C918095892302C09C91892B8C933996275F3F4F243B31058A
:2007A00011F7FF91EF91DF91CF91BF91AF919F918F917F916F915F914F913F912F911F9151
:2007C0000F910F900FBE0F901F9018950F931F93CF93DF938C01C62F6170FC0181890E94EE
:2007E000E609D0E0D595C7956C2F6170F80182890E94E609D595C7956C2F6170F80183895C
:200800000E94E609D595C7956C2F6170F80184890E94E609F801C08581858F3F19F092854C
:200820009111C82F61E08C2F0E94E60960E08C2FDF91CF911F910F910C94E609EF92FF92D6
:200840000F931F93CF93DF93EC01162FF42E088589858F3F19F09A859111082F8F818F3FD4
:2008600029F48CE792E00197F1F743C060E089890E94A30A60E08A890E94A30A60E08B895C
:200880000E94A30A60E08C890E94A30A61E08F810E94E60960E08E810E94E60961E0802FB3
:2008A0000E94E6098C890E94BD09E82E60E0802F0E94E60961E0802F0E94E60960E0802F24
:2008C0000E94E60981E0E81649F361E089890E94A30A61E08A890E94A30A61E08B890E94B0
:2008E000A30A61E08C890E94A30A60E08F810E94E6096F2D8E810E94E609612F6071898916
:200900000E94E609612F60728A890E94E609612F60748B890E94E609612F60788C890E9418
:20092000E60961E0802F0E94E60960E0802F0E94E609612F617089890E94E609612F627061
:200940008A890E94E609612F64708B890E94E609612F68708C890E94E60961E0802F0E944A
:20096000E60960E0802FDF91CF911F910F91FF90EF900C94E6090F931F93CF93DF93FC01B7
:2009800021852F3F39F440E0DF91CF911F910F910C941E04162FEC010285128640E00E9401
:2009A0001E0482E08A8740E0612FCE010E941E040A87DF91CF911F910F91089540E00C9451
:2009C0001E040F931F93CF93DF93EC018E89841710F44FEF480F4D876C871E86FE01E40F38
:2009E000F11D8789082F00749B85690F8F73680F683214F0685202C067FD685D062B142F66
:200A000012708A8590E0212F30E08217930741F08B8D8D7F8B8F682F6860CE010E94DE0421
:200A20001A87602F6068CE01DF91CF911F910F910C94DE041F93CF93DF93EC01162F8B8585
:200A4000811103C08E85882329F04D856C85CE010E94E1041D3039F01A3029F041E0612FC7
:200A6000CE010E941E041E869F858C852D8591110EC08F5F8C871D3041F0082E000C990B83
:200A80004D8950E0841795077CF01C8609C081508C871A3011F087FF07C08D8981508C87CC
:200AA0002F5F2D8781E08E872D85022E000C330B8E8990E0281739070CF01D8681E090E0DC
:200AC000DF91CF911F910895CF93DF93EC0189858F3FC1F082E08A8761E0CE010E94DE04A4
:200AE0001A8661E0CE010E94DE048F818F3F21F484EA96E10197F1F740E060E0CE010E9499
:200B0000E1040BC061E0CE010E94DE048F818F3F21F484EA96E10197F1F71B86DF91CF91C8
:200B200008951F920F920FB60F9211242F933F934F935F936F937F938F939F93AF93BF93C7
:200B4000EF93FF938091B900887F803609F49CC068F5883209F45BC090F4803109F454C02C
:200B600038F4882309F4F6C0883009F44DC0F6C0883109F44CC0803209F45DC0EFC0803482
:200B800009F468C048F4803309F455C0883309F0E5C08093D002D8C0803509F44FC08835DB
:200BA00009F45DC0883409F0D9C0D6C0883909F4C7C0A8F4883709F467C038F4883609F48C
:200BC00063C0803709F460C0C9C0883809F4B8C0803909F45FC0803809F0C0C05BC0803B84
:200BE00009F486C038F4803A09F466C0883A09F47FC0B4C0803C09F4A7C0883C09F4A4C0F2
:200C0000883B09F48AC0AAC08091F60210C09091F5028091F402981770F5E091F50281E08B
:200C20008E0F8093F502F0E0EC52FD4F80818093BB0085EC86C08093D0028EC0E091F50292
:200C400081E08E0F8093F5028091BB00F0E0EC52FD4F80839091F5028091F4026EC0E091A5
:200C6000F50281E08E0F8093F5028091BB00F0E0EC52FD4F80838091D30281116DC081E046
:200C80008093D20284EA61C083E08093D1021092CF02CFCF8091CF02803208F051C0E09176
:200CA000CF0281E08E0F8093CF028091BB00F0E0E155FD4F8083BDCF85EC8093BC001092F2
:200CC000D1028091CF02803230F4E091CF02F0E0E155FD4F10826091CF0270E0E091AD0231
:200CE000F091AE028FEA92E009951092CF0236C084E08093D1021092AC021092AB02E09177
:200D0000A902F091AA0209958091AB02811105C081E08093AB0210928902E091AC0281E07A
:200D20008E0F8093AC02F0E0E757FD4F80818093BB009091AC028091AB02981708F479CFAC
:200D400085E88093BC000AC085EC8093BC001092D10204C01092D0020E940302FF91EF91E9
:200D6000BF91AF919F918F917F916F915F914F913F912F910F900FBE0F901F9018950F931A
:200D80001F93CF93DF931F92CDB7DEB78C0169830E9409146981681741F0C8010F90DF9159
:200DA000CF911F910F910C9411140F90DF91CF911F910F9108950C9409148F929F92AF9212
:200DC000BF92CF92DF92EF92FF92CF936C018FB7F89480907A0490907B04A0907C04B09020
:200DE0007D048FBF0D2C000CEE08FF082FB7F89480917A0490917B04A0917C04B0917D04CE
:200E00002FBF88199909AA09BB09C816D906EA06FB06F8F0A895C4E661E070E080E090E04C
:200E20000E948C0B2FB7F89480917A0490917B04A0917C04B0917D042FBF88199909AA0981
:200E4000BB098C159D05AE05BF0580F6C15021F7CDCFA895CF91FF90EF90DF90CF90BF9011
:200E6000AF909F908F90089590E08D30910558F5FC01E05CFF4F0C94861460E679E029C0EF
:200E800060E875E226C060E478E323C060E07BE420C060E076E91DC060E071EE1AC060E097
:200EA00072EC81E017C060E074E883E013C060E078E087E00FC060E070E18EE00BC060E4EE
:200EC00072E48FE007C0089560EB74E002C060EC72E180E090E0089589E090E00E94DB0620
:200EE000181634F062E789E090E00E94BF0682E7880F8093BA0085E392E09093AA0280938E
:200F0000A90281E492E09093AE028093AD021092820210928102109286021092850210927A
:200F2000D10281E08093D3021092D20261E082E10E94E60961E083E10E94E6098091B900EA
:200F40008E7F8093B9008091B9008D7F8093B9008FE28093B80085E48093BC008CEB92E0B9
:200F6000909384028093830208951F920F920FB60F9211242F933F938F939F93EF93FF93AA
:200F80002EB58091550290E001968F77992730915602381741F0E0915502F0E0EB52FE4F7E
:200FA000208380935502FF91EF919F918F913F912F910F900FBE0F901F901895CF938DE5F9
:200FC00094E00E94640540E060E08DE594E00E94E104C0E08C2F90E02091D2016091D301B1
:200FE000269F900111248217930754F4FC01EE57FE4F60818DE594E00E941A05CF5FEACFED
:201000008091D4010E947A14482F692F8DE594E0CF910C94E1041092D4018091D3012091D3
:20102000D201829F9001112440E050E2842F90E08217930734F4FC01EE57FE4F50834F5F16
:20104000F5CF0895833081F028F4813099F08230A1F008958730A9F08830B9F08430D1F4AB
:20106000809180008F7D03C0809180008F7780938000089584B58F7702C084B58F7D84BDC2
:2010800008958091B0008F7703C08091B0008F7D8093B0000895CF92DF92EF92FF926B01AC
:2010A0007C0160E070E38AE290E0A70196010E944914DA01C9010197A109B109B695A795DE
:2010C000979587959C01E091C403F091C50382E08083211580E13807B8F0E091C403F0910E
:2010E000C503108260E078E185E190E0A70196010E944914DA01C9010197A109B109B695FD
:20110000A795979587959C01E091C003F091C1033083E091C203F091C30320831092CC03F1
:20112000E091C803F091C90386E08083E091C603F091C703808180618083E091C603F09198
:20114000C703808188608083E091C603F091C703808180688083E091C603F091C7038081E2
:201160008F7D8083FF90EF90DF90CF900895DF92EF92FF920F931F93CF93DF938770909124
:201180006604682F70E09F3FB9F493E0660F771F9A95E1F760648DE594E00E94DE04C7EF0A
:2011A000D2E0699141E08DE594E00E941E0482E0CF3FD807B1F733C0D090670410926704F6
:2011C00083E0660F771F8A95E1F7C62FC0646C2F8DE594E00E94DE0407EF12E07801D8E073
:2011E000D00FF70161917F0141E08DE594E00E941E04DE11F6CF82E0809367046C2F8DE53A
:2012000094E00E94DE04F80161918F0141E08DE594E00E941E04D013F6CFD0926704DF91AB
:20122000CF911F910F91FF90EF90DF9008950F931F93CF93DF938C01C0E0D0E0F801EC0FEB
:20124000FD1F6491662371F0E0915D04F0915E040190F081E02D8DE594E00995892B11F096
:201260002196ECCFCE01DF91CF911F910F910895009769F0FC0101900020E9F73197AF017A
:20128000481B590BBC018DE594E00C94E20080E090E008958F929F92AF92BF920F931F93BD
:2012A000CF93DF93CDB7DEB7A1970FB6F894DEBF0FBECDBF19A2423008F44AE08E010F5D74
:2012C0001F4F842E912CA12CB12CA50194010E944914E62FB901CA0101501109EA3014F426
:2012E000E05D01C0E95CD801EC93232B242B252B61F7C8010E943809A1960FB6F894DEBF3D
:201300000FBECDBFDF91CF911F910F91BF90AF909F908F900895CF92DF92EF92FF92CF9395
:20132000DF9397FF21C06B017C01E0915D04F0915E040190F081E02D6DE28DE594E0099544
:20134000EC0166277727CB016C197D098E099F094AE00E944A098C0F9D1FDF91CF91FF908A
:20136000EF90DF90CF9008954AE0DF91CF91FF90EF90DF90CF900C944A09CF93DF93282F8F
:2013800030E0F901E85DFE4F8491F901E45CFE4FD491F901E65AFE4FC491CC2391F08111D2
:2013A0000E942208EC2FF0E0EE0FFF1FE25EFE4FA591B491EC91ED2381E090E021F480E080
:2013C00002C080E090E0DF91CF9108951F93CF93DF93282F30E0F901E85DFE4F8491F90186
:2013E000E45CFE4FD491F901E65AFE4FC491CC23C9F0162F81110E942208EC2FF0E0EE0FEC
:20140000FF1FE05BFE4FA591B4918FB7F894111105C09C91ED2FE095E92302C0EC91ED2BD1
:20142000EC938FBFDF91CF911F910895EF92FF920F931F93CF93DF9300D0CDB7DEB77C0122
:20144000623010F028E001C020E092E164E97AE3FB013197F1F79150D9F760E0F701868178
:201460002A8349830E94E60960E04981842F0E94E60960E0F70186810E94E60963E0C70139
:201480000E94E6038CE097E20197F1F763E0C7010E94E60308E211E0C8010197F1F763E05F
:2014A000C7010E94E603C8010197F1F762E0C7010E94E603C8010197F1F72A81622F6062B4
:2014C000C7010E94DE0484E0F701838F6CE0C7010E94BB04C7010E94640582E0F701848F9D
:2014E00066E0C7010F900F90DF91CF911F910F91FF90EF900C94DE041F93CF93DF93EC017D
:20150000142F6D8B6D834E8B4C838F89860F898F888D680F6A8F4885612FCE010E94160AC0
:2015200049854F3F61F0198E80E48A8F82E08A87612FCE01DF91CF911F910C94160ADF9158
:20154000CF911F910895CF93DF9390E0FC01E45CFE4F2491FC01E65AFE4F8491882361F1BF
:2015600090E0880F991FFC01EC5EFE4FC591D491FC01E05BFE4FA591B491611109C09FB7CC
:20158000F8948881209582238883EC912E230BC0623061F49FB7F8943881822F80958323CA
:2015A0008883EC912E2B2C939FBF06C08FB7F894E8812E2B28838FBFDF91CF910895E0E0AD
:2015C000F3E020E030E0AFEF9081933051F499E0929FF001939FF00D1124E050FD4F8583EE
:2015E0000895AF3F11F497FDA22F2F5F3F4F39962431310549F7AF3F79F199E0A902D001F3
:201600001124A050BD4F93E09C939091FF0211969C931197EDE5F1E0E491F0E0EE0FFF1F54
:20162000E05BFE4F2591349113963C932E931297EFE3F1E0E4911496EC93149715968C930F
:20164000911102C060E001C061E083E00E94E60961E083E00C94A30A08951F93CF93DF93DC
:20166000182FEB0161E00E94A30A209711F460E004C0CF3FD10539F461E0812FDF91CF9115
:201680001F910C94E609E12FF0E0E85DFE4FE491E330F9F048F4E130B9F0E230A1F584B551
:2016A000806284BDC8BD34C0E730E9F0E83019F1E43049F580918000806280938000D093C1
:2016C0008B00C0938A0024C084B5806884BDC7BD1FC080918000806880938000D093890001
:2016E000C093880015C08091B00080688093B000C093B3000DC08091B00080628093B00095
:20170000C093B40005C0C038D1050CF0B5CFAFCFDF91CF911F9108958F929F92AF92BF9230
:20172000CF92DF92EF92FF926B017C010E94C60B4B015C01C114D104E104F104F1F00E94B9
:20174000C60BDC01CB0188199909AA09BB09883E9340A105B10570F321E0C21AD108E1085E
:20176000F10888EE880E83E0981EA11CB11CC114D104E104F10419F7DDCFFF90EF90DF9004
:20178000CF90BF90AF909F908F9008959FB7F89440917F04509180046091810470918204D9
:2017A00086B5A89B06C08F3F21F04F5F5F4F6F4F7F4F9FBF762F652F542F44279A01AB0152
:2017C000280F311D411D511DA5E0B0E00E943E1408951F920F920FB60F9211242F933F9391
:2017E0008F939F93AF93BF9380917A0490917B04A0917C04B0917D0430917E042DE3230FDA
:201800002D3720F40196A11DB11D05C020EC230F0296A11DB11D20937E0480937A0490931D
:201820007B04A0937C04B0937D0480917F0490918004A0918104B09182040196A11DB11DD9
:2018400080937F0490938004A0938104B0938204BF91AF919F918F913F912F910F900FBEEE
:201860000F901F901895CF93DF9300D01F92CDB7DEB7789484B5826084BD84B5816084BD3C
:2018800085B5826085BD85B5816085BD80916E00816080936E001092810080918100826015
:2018A0008093810080918100816080938100809180008160809380008091B10084608093CF
:2018C000B1008091B00081608093B00080917A00846080937A0080917A00826080937A00FC
:2018E00080917A008E7F80937A0080917A00806880937A001092C100A8950FB6F894A89595
:2019000080916000886180936000109260000FBE83E090E00E94DB068093D201853040F00A
:2019200082E08093D20162E083E090E00E94BF0684E090E00E94DB068093D301853140F0BF
:2019400080E18093D30160E184E090E00E94BF0662E088E00E94A30A88E00E94BD09892B46
:2019600031F484E08093D20184E18093D30160E088E00E94A30A4091D2016091D3018DE5DA
:2019800094E00E947C0A0E940B088AE090E00E94DB06182F8F3F31F465E08AE090E00E949E
:2019A000BF0615E080918100887F81608093810061E089E00E94A30A612F70E089E00E947B
:2019C0002D0B61E085E00E94A30A61E086E00E94A30A61E083E00E94A30A85E090E00E947A
:2019E000DB060FEF10E0B801681B710985E00E942D0B86E090E00E94DB06B801681B710914
:201A000086E00E942D0B81E087BB82E08093B1008093B0009AE59093B3008093700000E042
:201A200013E0F80180E090E02FEF2083DC01A050BD4F11961C9211971382128217961C92CF
:201A4000179718961C9239960996843B910569F71092FF0287E090E00E94DB0680950E94A5
:201A6000DF0A80E090E0F8012081233059F429E0289FF001299FF00D1124E050FD4F1782A3
:201A8000108606C00196075F1F4F8431910559F782E090E00E94DB06823018F48093570265
:201AA00008C081E08093570261E082E090E00E94BF0680915702882309F4A2C084E190E0CE
:201AC0000E94DB068F3F49F08091D2010091D301809F80011124F12C45C08DE594E00E94B4
:201AE000640540E060E08DE594E00E94E10485EA90E00E94170941E060E08DE594E00E9426
:201B0000E1048FE990E00E94170980E090E00E94DB06809358028D3040F083E080935802B9
:201B200063E080E090E00E94BF06809158020E9434070E948B098CE990E00E9417094AE0DC
:201B400061E070E080E090E00E944A098AE990E00E9417094AE061E070E080E090E00E945D
:201B60004A0911C0CF2CD12CC016D10654F4C60144960E94DB06F601EE57FE4F8083F3941D
:201B8000F1CF0E94DE0760E875E280E090E00E944B0812E384EB93E00E943E01892BF1F04D
:201BA00084EB93E00E941C014297C1F48DE594E00E94640540E060E08DE594E00E94E10438
:201BC00081E391E00E94380963E080E090E00E94BF0684EF91E00E94DD0606C08AE090E0CA
:201BE0000E94DD061150B1F60E940B088DE594E00E94640540E060E08DE594E00E94E104E5
:201C000024E6E22EF12CB12C87EF92E038E0A32EA80E97EFC92E92E0D92E8701C8010E9440
:201C2000DB06F60181936F010F5F1F4FAE12F6CF8B2D0E94B708B394F8E0EF0EF11C28E09D
:201C4000B212E7CF4091D2016091D3018DE594E00E947C0A88E090E00E94DB06823030F066
:201C600060E088E090E00E94BF0602C081115DC062E080E00E94A30A80E00E94BD09019723
:201C800009F453C061E085E00E94A30A61E085E00E94E60910E5A89569E170E080E090E06C
:201CA0000E948C0B85E00E94BD09892B11F060E001C061E085E00E94E60980E00E94BD0969
:201CC000019799F1115039F700E010E06FEFC8010E94BF060F5F1F4F083C1105B9F768E2C3
:201CE00070E089E00E942D0B8DE594E00E9464058CE391E00E94380941E060E08DE594E056
:201D00000E94E10489E491E00E94380961E085E00E94E60984EF91E00E94DD0685E00E94D4
:201D2000BD09892B99F360E0F2CF80E090E00E94DB06809358028D3040F083E0809358021F
:201D400063E080E090E00E94BF06809158020E9434070E944B0860E08DE00E94A30A60E090
:201D60008BE00E94A30A61E08CE00E94A30A60E08AE00E94A30A80EC8CBD0E946C0783B7B0
:201D8000817F83BF83B7816083BF80917A008F7780937A0080E880BF8FE380937E0083E079
:201DA00080937F008091640081608093640078949CE088E10FB6F894A895809360000FBE05
:201DC0009093600022242A94312CADE1CA2ED12CE12CF12C12E0B4E04B2E512C03E0802E65
:201DE000912C66246394712CA8950E94DE0104E09091560280915502981709F410C4A895C8
:201E0000E0915602F0E0EB52FE4F50818091560290E001968F7799278093560280915F02BB
:201E200090916002009709F046C05C3719F482E090E0ABC15E3F29F47092600260925F023A
:201E4000D7CF5830C1F48091D401811109C08091D2019091D301899F802D11248093D40193
:201E6000E091D401E150E093D401F0E0EE57FE4F80E2808396C0652F8DE594E059830E948E
:201E80001A05E091D40181E08E0F8093D401F0E0EE57FE4F598150833091D3012091D201CF
:201EA00090E0329F900111248217930709F0A0CF1092D4019DCF8230910509F0FBC11092FE
:201EC000600210925F028DEF850F853008F06CC0823071F018F4813039F004C0833059F0FB
:201EE000843061F084E101C080E18093D30109C00093D20106C01093D20103C081E08093CD
:201F0000D201B090D3014091D2016B2D8DE594E00E947C0A0E940B086B2D84E090E00E94CD
:201F2000BF066091D20183E090E00E94BF068DE594E00E94640540E060E08DE594E00E9405
:201F4000E1048DEB90E00E9417096091D20170E080E090E04AE00E944A098091D20181305A
:201F600051F484EF91E00E94DD068DE594E00E94640540E001C041E060E08DE594E00E94F8
:201F8000E10486EB90E00E9417096091D30170E080E090E04AE00E944A0984EF91E00E942F
:201FA000DD060E94DE0724CF583009F4FFCF593061F582E090E00E94DB06B82E8DE594E071
:201FC0000E94640540E060E08DE594E00E94E10489EC90E00E94170931E0B31206C086EC74
:201FE00090E00E94170960E005C084EC90E00E94170961E084EF91E069830E94DD06698188
:2020000082E090E00E94BF06CCCF5A3029F5B12C8B2D90E03091D2012091D301329F9001C4
:202020001124821793074CF4FC01EE57FE4F608144960E94BF06B394EBCF8DE594E00E94BE
:20204000640540E060E08DE594E00E94E10488E591E00E943809A1CFE5EFE50FED3008F03C
:2020600056C08E2F90E0FC013197EC30F10520F4EC5CFF4F0C94861481E00BC01093580239
:2020800021C043E0409358021DC0009358021AC085E08093580216C086E0FBCF87E0F9CF64
:2020A00098E0909358020EC089E0F3CF8AE0F1CFEBE0E093580206C0FCE0F093580202C02F
:2020C000109258026091580280E090E00E94BF068DE594E00E94640540E060E08DE594E04B
:2020E0000E94E10482ED90E00E941709809158020E9434070E948B0984EF91E00E94DD06D1
:20210000809158020E9434070E944B084ACF583129F49092600280925F026ACE593129F4ED
:202120005092600240925F0263CE5A3131F588E090E00E94DB06B82E8DE594E00E94640514
:2021400040E060E08DE594E00E94E10481EE90E00E94170921E0B21206C08EED90E00E94F9
:20216000170960E005C08CED90E00E94170961E088E090E00E94BF0610CF85EE850F883071
:2021800048F480935E0285E090E09093600280935F022ECE6DED650F683028F48DE594E05E
:2021A0000E941A0525CE5B3219F486E090E0EDCF5C32F9F48DE594E00E94640540E060E073
:2021C0008DE594E00E94E1048FEE90E00E9417094AE061E070E080E090E00E944A098DEEE8
:2021E00090E00E9417094AE061E070E080E090E0D2CE5D3269F48DE594E00E94640540E085
:2022000060E08DE594E00E94E1040E940B08F0CD5C3711F46CE730CE80E8850F8E31A8F45F
:20222000852F90E0A0E0B0E09C01AD012058310941095109AFEFB0E00E943E14A701960168
:202240000E941F14622F80E018C082E6850F8E31B8F4852F90E0A0E0B0E09C01AD012E5973
:20226000310941095109AFEFB0E00E943E14A70196010E941F14622F82E00E941913B8CD04
:2022800084E4850F8E3108F0B3CD852F90E0A0E0B0E09C01AD012C5B310941095109AFEF89
:2022A000B0E00E943E14A70196010E941F14622F81E0E3CF84309105E9F4652F89E090E04E
:2022C00059830E94BF060E946C078DE594E00E94640540E060E08DE594E00E94E10488E67A
:2022E00091E00E9438095981652F70E080E090E040E14EC18130910509F0E2C010926002E6
:2023000010925F02852F90E09C01220F232F221F330B21303105D1F4652F6F776431A0F00C
:2023200080EC860F843148F08CEE860F843140F06455643140F443E072C0682F41E06FC0FD
:20234000682F42E06CC060E040E069C09C0176E0359527957A95E1F72130310529F45F7B31
:202360005B5150935E020FCF9C0164E0359527956A95E1F72130310509F056C0952F9470F4
:2023800053FF24C0992381F06CE18DE594E00E94BB04809168049FEF980F90936804993D2F
:2023A0000CF026CD895D0FC068E18DE594E00E94BB048091680491E0980F909368049832FB
:2023C0000CF416CD87528093680412CD6091D3018091D401992379F08F5F8093D40120918C
:2023E000D20190E0629F900111248217930789F41092D4010EC0811107C08091D201869F7C
:20240000802D11248093D4018091D40181508093D4018091D4010E947A14482F692F8DE5BC
:2024200094E00E94E104E4CC43E0959587954A95E1F70197D9F56091780450FF06C0862F34
:20244000816080937804696004C06E7F6093780468608DE594E059830E94DE04598160914A
:20246000780451FF06C0862F8260809378046A6004C06D7F6093780468608DE594E0598331
:202480000E94DE0459816091780452FF06C0862F8460809378046C6004C06B7F6093780449
:2024A00068608DE594E00E94BB04A2CC2330310509F49ECC652F8DE594E00E94DE0498CC4D
:2024C00085309105E1F580915D02E82FF0E0E950FD4F50838F5F883018F480935D0288CCB4
:2024E00010925D0280915E020E94B70887EFA82E82E0B82E1B821A82F50161915F018091E3
:202500005E022A813B8148E0849F200D311D1124C9018C599F4F0E94BF062A813B812F5F00
:202520003F4F3B832A832830310531F74091D2016091D3018DE594E00E947C0A6BC0833097
:20254000910579F5652F8AE090E059830E94BF065981652F70E089E00E942D0B8DE594E0DF
:202560000E94640540E060E08DE594E00E94E10484E791E00E94380941E060E08DE594E07D
:202580000E94E1045981652F70E080E090E04AE00E944A0984EF91E00E94DD060E94DE0717
:2025A00039C0069709F024CC80915C02E82FF0E0E75AFD4F50838F5F833018F480935C02C8
:2025C00017CC10925C02A0905B0230915A023A83B09059026B2D85E090E00E94BF06B10190
:2025E0006B19710985E00E942D0B6A8186E090E00E94BF06B1014A81641B710986E00E94F8
:202600002D0B6A2D87E090E00E94BF068A2D80950E94DF0A1092600210925F02E9CB83B761
:20262000816083BF889583B78E7F83BF0E94FD01DBCB0F931F93CF93DF93C82FD62F062F32
:2026400010E081110AC085E090E00E94BF066FEF70E0601B710B85E00BC0823061F486E0B0
:2026600090E00E94BF066FEF70E0601B710B86E00E942D0B0AC0813041F487E090E00E9475
:20268000BF068D2F80950E94DF0A8DE594E00E94640540E060E08DE594E00E94E104C11189
:2026A00003C08AE091E009C0C23019F484E091E004C0C13021F48FEF90E00E9417098CEFEA
:2026C00090E00E9417099801A4E6B0E00E946B142FEF30E040E050E00E941F14CA01B9011C
:2026E0004AE00E944A098AEF90E00E94170984EF91E00E94DD06DF91CF911F910F910C94E7
:20270000DE07CF93DF93E4EBF3E01382128288EE93E0A0E0B0E084839583A683B78325E0B5
:2027200031E03183208325EC30E03587248724EC30E03787268720EC30E0318B208B21EC8E
:2027400030E0338B228B22EC30E0358B248B26EC30E0378B268B118E128E138E148EE1E594
:20276000F4E01382128284839583A683B78387E191E091838083CDE5D4E01B821A8289E2E0
:2027800091E0998388838EE08E838FEF8F8390E1988789871A861B861C861D861E861F8623
:2027A00081E1898B82E08A8B87E08B8B84E08C8B61E081E10E94A30A61E082E00E94A30A50
:2027C00061E087E00E94A30A61E084E00E94A30A1F8A80E4888F84E1898F84E58A8F61E0AA
:2027E0008E810E94A30A61E08FE00E94A30A60E08FE00E94E60961E088850E94A30A41E07E
:2028000064E1CE010E947C0A8FE08F83DF91CF910895F999FECF92BD81BDF89A992780B51B
:202820000895262FF999FECF1FBA92BD81BD20BD0FB6F894FA9AF99A0FBE01960895052E58
:2028400097FB1EF400940E94361457FD07D00E94491407FC03D04EF40C943614509540956E
:20286000309521953F4F4F4F5F4F089590958095709561957F4F8F4F9F4F08950E946B14D9
:20288000A59F900DB49F900DA49F800D911D11240895A1E21A2EAA1BBB1BFD010DC0AA1F1D
:2028A000BB1FEE1FFF1FA217B307E407F50720F0A21BB30BE40BF50B661F771F881F991FC5
:2028C0001A9469F760957095809590959B01AC01BD01CF010895A29FB001B39FC001A39FFB
:2028E000700D811D1124911DB29F700D811D1124911D0895991B79E004C0991F961708F0C0
:20290000961B881F7A95C9F780950895EE0FFF1F0590F491E02D099481E090E0F8940C9402
:202920009114F894FFCFFF000000007501E2000D01BC013E011C01300100000000AB0297A5
:2029400002DC026B028F027B026C02000000001A05E200DC02DB02426175642052657365C7
:20296000740053797374656D20726573657400506F776572206379636C65206D6500537029
:202980006C617368205265636F72646564004E6577205457493A20307800436F6E747261A0
:2029A0007374205365740000FFFFFFFFFFFFFFFFFFFFFFFFFFFFFFFFFFFFFFFFFFFFFFFFFC
:2029C000FFFFFFFFFFFFFFFFFFFFFFFFFFFFFFFFFFFFFFFFFFFFFFFFFFFFFFFFFFFFFFFF17
:2029E000FFFFFFFFFFFFFFFFFFFFFFFFFFFFFFFFFFFFFFFFFFFFFFFFFFFFFFFFFFFFFFFFF7
:207DE000FFFFFFFFFFFFFFFFFFFFFFFFFFFFFFFFFFFFFFFFFFFFFFFFFFFFFFFFFFFFFFFFA3
:207E0000112484B714BE81FFF0D085E08093810082E08093C00088E18093C10086E08093FC
:207E2000C2008BE08093C4008EE0C9D0259A86E02DE53DEF91E0309385002093840096BB93
:207E4000B09BFECF1D9AA8958150A9F7CC24DD2488248394B5E0AB2EA1E19A2EF3E0BF2E79
:207E6000A2D0813461F49FD0082FAFD0023811F0013811F484E001C083E08DD089C0823404
:207E800011F484E103C0853419F485E0A6D080C0853579F488D0E82EFF2485D0082F10E0A0
:207EA000102F00270E291F29000F111F8ED068016FC0863521F484E090D080E0DECF84364D
:207EC00009F040C070D06FD0082F6DD080E0C81680E7D80618F4F601B7BEE895C0E0D1E0ED
:207EE00062D089930C17E1F7F0E0CF16F0E7DF0618F0F601B7BEE89568D007B600FCFDCF1A
:207F0000A601A0E0B1E02C9130E011968C91119790E0982F8827822B932B1296FA010C016F
:207F200087BEE89511244E5F5F4FF1E0A038BF0751F7F601A7BEE89507B600FCFDCF97BE85
:207F4000E89526C08437B1F42ED02DD0F82E2BD03CD0F601EF2C8F010F5F1F4F84911BD0B8
:207F6000EA94F801C1F70894C11CD11CFA94CF0CD11C0EC0853739F428D08EE10CD085E9AE
:207F80000AD08FE07ACF813511F488E018D01DD080E101D065CF982F8091C00085FFFCCF0A
:207FA0009093C60008958091C00087FFFCCF8091C00084FD01C0A8958091C6000895E0E68F
:207FC000F0E098E1908380830895EDDF803219F088E0F5DFFFCF84E1DECF1F93182FE3DF47
:207FE0001150E9F7F2DF1F91089580E0E8DFEE27FF270994FFFFFFFFFFFFFFFFFFFF040425
:00000001FF
